{
  "_format": "hh-sol-artifact-1",
  "contractName": "BondNft",
  "sourceName": "contracts/BondNft.sol",
  "abi": [
    {
      "inputs": [
        {
          "internalType": "string",
          "name": "name_",
          "type": "string"
        },
        {
          "internalType": "string",
          "name": "symbol_",
          "type": "string"
        }
      ],
      "stateMutability": "nonpayable",
      "type": "constructor"
    },
    {
      "anonymous": false,
      "inputs": [
        {
          "indexed": true,
          "internalType": "address",
          "name": "owner",
          "type": "address"
        },
        {
          "indexed": true,
          "internalType": "address",
          "name": "approved",
          "type": "address"
        },
        {
          "indexed": true,
          "internalType": "uint256",
          "name": "tokenId",
          "type": "uint256"
        }
      ],
      "name": "Approval",
      "type": "event"
    },
    {
      "anonymous": false,
      "inputs": [
        {
          "indexed": true,
          "internalType": "address",
          "name": "owner",
          "type": "address"
        },
        {
          "indexed": true,
          "internalType": "address",
          "name": "operator",
          "type": "address"
        },
        {
          "indexed": false,
          "internalType": "bool",
          "name": "approved",
          "type": "bool"
        }
      ],
      "name": "ApprovalForAll",
      "type": "event"
    },
    {
      "anonymous": false,
      "inputs": [
        {
          "indexed": true,
          "internalType": "address",
          "name": "previousOwner",
          "type": "address"
        },
        {
          "indexed": true,
          "internalType": "address",
          "name": "newOwner",
          "type": "address"
        }
      ],
      "name": "OwnershipTransferred",
      "type": "event"
    },
    {
      "anonymous": false,
      "inputs": [
        {
          "indexed": false,
          "internalType": "address",
          "name": "account",
          "type": "address"
        }
      ],
      "name": "Paused",
      "type": "event"
    },
    {
      "anonymous": false,
      "inputs": [
        {
          "indexed": true,
          "internalType": "address",
          "name": "from",
          "type": "address"
        },
        {
          "indexed": true,
          "internalType": "address",
          "name": "to",
          "type": "address"
        },
        {
          "indexed": true,
          "internalType": "uint256",
          "name": "tokenId",
          "type": "uint256"
        }
      ],
      "name": "Transfer",
      "type": "event"
    },
    {
      "anonymous": false,
      "inputs": [
        {
          "indexed": false,
          "internalType": "address",
          "name": "account",
          "type": "address"
        }
      ],
      "name": "Unpaused",
      "type": "event"
    },
    {
      "inputs": [
        {
          "internalType": "address",
          "name": "legalMember_",
          "type": "address"
        }
      ],
      "name": "addLegalRole",
      "outputs": [],
      "stateMutability": "nonpayable",
      "type": "function"
    },
    {
      "inputs": [
        {
          "internalType": "address",
          "name": "to",
          "type": "address"
        },
        {
          "internalType": "uint256",
          "name": "tokenId",
          "type": "uint256"
        }
      ],
      "name": "approve",
      "outputs": [],
      "stateMutability": "nonpayable",
      "type": "function"
    },
    {
      "inputs": [
        {
          "internalType": "address",
          "name": "owner",
          "type": "address"
        }
      ],
      "name": "balanceOf",
      "outputs": [
        {
          "internalType": "uint256",
          "name": "",
          "type": "uint256"
        }
      ],
      "stateMutability": "view",
      "type": "function"
    },
    {
      "inputs": [],
      "name": "canTransfer",
      "outputs": [
        {
          "internalType": "bool",
          "name": "_status",
          "type": "bool"
        }
      ],
      "stateMutability": "view",
      "type": "function"
    },
    {
      "inputs": [
        {
          "internalType": "uint256",
          "name": "start_",
          "type": "uint256"
        },
        {
          "internalType": "uint8",
          "name": "bondCount_",
          "type": "uint8"
        }
      ],
      "name": "getAllBonds",
      "outputs": [
        {
          "components": [
            {
              "internalType": "uint256",
              "name": "bondId",
              "type": "uint256"
            },
            {
              "internalType": "string",
              "name": "cid",
              "type": "string"
            }
          ],
          "internalType": "struct bondDetails[]",
          "name": "",
          "type": "tuple[]"
        }
      ],
      "stateMutability": "view",
      "type": "function"
    },
    {
      "inputs": [
        {
          "internalType": "uint256",
          "name": "tokenId",
          "type": "uint256"
        }
      ],
      "name": "getApproved",
      "outputs": [
        {
          "internalType": "address",
          "name": "",
          "type": "address"
        }
      ],
      "stateMutability": "view",
      "type": "function"
    },
    {
      "inputs": [],
      "name": "getTotalBondCount",
      "outputs": [
        {
          "internalType": "uint256",
          "name": "",
          "type": "uint256"
        }
      ],
      "stateMutability": "view",
      "type": "function"
    },
    {
      "inputs": [
        {
          "internalType": "address",
          "name": "owner",
          "type": "address"
        },
        {
          "internalType": "address",
          "name": "operator",
          "type": "address"
        }
      ],
      "name": "isApprovedForAll",
      "outputs": [
        {
          "internalType": "bool",
          "name": "",
          "type": "bool"
        }
      ],
      "stateMutability": "view",
      "type": "function"
    },
    {
      "inputs": [
        {
          "internalType": "address",
          "name": "to_",
          "type": "address"
        },
        {
          "internalType": "string",
          "name": "storageUri_",
          "type": "string"
        }
      ],
      "name": "mintABond",
      "outputs": [
        {
          "internalType": "uint256",
          "name": "",
          "type": "uint256"
        }
      ],
      "stateMutability": "nonpayable",
      "type": "function"
    },
    {
      "inputs": [],
      "name": "name",
      "outputs": [
        {
          "internalType": "string",
          "name": "",
          "type": "string"
        }
      ],
      "stateMutability": "view",
      "type": "function"
    },
    {
      "inputs": [],
      "name": "owner",
      "outputs": [
        {
          "internalType": "address",
          "name": "",
          "type": "address"
        }
      ],
      "stateMutability": "view",
      "type": "function"
    },
    {
      "inputs": [
        {
          "internalType": "uint256",
          "name": "tokenId",
          "type": "uint256"
        }
      ],
      "name": "ownerOf",
      "outputs": [
        {
          "internalType": "address",
          "name": "",
          "type": "address"
        }
      ],
      "stateMutability": "view",
      "type": "function"
    },
    {
      "inputs": [],
      "name": "pause",
      "outputs": [],
      "stateMutability": "nonpayable",
      "type": "function"
    },
    {
      "inputs": [],
      "name": "paused",
      "outputs": [
        {
          "internalType": "bool",
          "name": "",
          "type": "bool"
        }
      ],
      "stateMutability": "view",
      "type": "function"
    },
    {
      "inputs": [
        {
          "internalType": "address",
          "name": "legalMember_",
          "type": "address"
        }
      ],
      "name": "removeLegalRole",
      "outputs": [],
      "stateMutability": "nonpayable",
      "type": "function"
    },
    {
      "inputs": [],
      "name": "renounceOwnership",
      "outputs": [],
      "stateMutability": "nonpayable",
      "type": "function"
    },
    {
      "inputs": [
        {
          "internalType": "address",
          "name": "from",
          "type": "address"
        },
        {
          "internalType": "address",
          "name": "to",
          "type": "address"
        },
        {
          "internalType": "uint256",
          "name": "tokenId",
          "type": "uint256"
        }
      ],
      "name": "safeTransferFrom",
      "outputs": [],
      "stateMutability": "nonpayable",
      "type": "function"
    },
    {
      "inputs": [
        {
          "internalType": "address",
          "name": "from",
          "type": "address"
        },
        {
          "internalType": "address",
          "name": "to",
          "type": "address"
        },
        {
          "internalType": "uint256",
          "name": "tokenId",
          "type": "uint256"
        },
        {
          "internalType": "bytes",
          "name": "_data",
          "type": "bytes"
        }
      ],
      "name": "safeTransferFrom",
      "outputs": [],
      "stateMutability": "nonpayable",
      "type": "function"
    },
    {
      "inputs": [
        {
          "internalType": "address",
          "name": "operator",
          "type": "address"
        },
        {
          "internalType": "bool",
          "name": "approved",
          "type": "bool"
        }
      ],
      "name": "setApprovalForAll",
      "outputs": [],
      "stateMutability": "nonpayable",
      "type": "function"
    },
    {
      "inputs": [
        {
          "internalType": "bytes4",
          "name": "interfaceId",
          "type": "bytes4"
        }
      ],
      "name": "supportsInterface",
      "outputs": [
        {
          "internalType": "bool",
          "name": "",
          "type": "bool"
        }
      ],
      "stateMutability": "view",
      "type": "function"
    },
    {
      "inputs": [],
      "name": "symbol",
      "outputs": [
        {
          "internalType": "string",
          "name": "",
          "type": "string"
        }
      ],
      "stateMutability": "view",
      "type": "function"
    },
    {
      "inputs": [
        {
          "internalType": "uint256",
          "name": "tokenId",
          "type": "uint256"
        }
      ],
      "name": "tokenURI",
      "outputs": [
        {
          "internalType": "string",
          "name": "",
          "type": "string"
        }
      ],
      "stateMutability": "view",
      "type": "function"
    },
    {
      "inputs": [
        {
          "internalType": "address",
          "name": "from",
          "type": "address"
        },
        {
          "internalType": "address",
          "name": "to",
          "type": "address"
        },
        {
          "internalType": "uint256",
          "name": "tokenId",
          "type": "uint256"
        }
      ],
      "name": "transferFrom",
      "outputs": [],
      "stateMutability": "nonpayable",
      "type": "function"
    },
    {
      "inputs": [
        {
          "internalType": "address",
          "name": "newOwner",
          "type": "address"
        }
      ],
      "name": "transferOwnership",
      "outputs": [],
      "stateMutability": "nonpayable",
      "type": "function"
    },
    {
      "inputs": [],
      "name": "unPause",
      "outputs": [],
      "stateMutability": "nonpayable",
      "type": "function"
    },
    {
      "inputs": [
        {
          "internalType": "uint256",
          "name": "id_",
          "type": "uint256"
        },
        {
          "internalType": "string",
          "name": "hashedDoc_",
          "type": "string"
        },
        {
          "internalType": "string",
          "name": "storageUri_",
          "type": "string"
        }
      ],
      "name": "updateABond",
      "outputs": [
        {
          "internalType": "bool",
          "name": "",
          "type": "bool"
        }
      ],
      "stateMutability": "nonpayable",
      "type": "function"
    },
    {
      "inputs": [
        {
          "internalType": "uint256",
          "name": "id_",
          "type": "uint256"
        },
        {
          "internalType": "string",
          "name": "hashedDoc_",
          "type": "string"
        }
      ],
      "name": "verifyBond",
      "outputs": [
        {
          "internalType": "bool",
          "name": "",
          "type": "bool"
        }
      ],
      "stateMutability": "view",
      "type": "function"
    }
  ],
  "bytecode": "0x60806040523480156200001157600080fd5b50604051620048a6380380620048a68339818101604052810190620000379190620003a0565b81818160009080519060200190620000519291906200027e565b5080600190805190602001906200006a9291906200027e565b5050506200008d62000081620000db60201b60201c565b620000e360201b60201c565b6000600760146101000a81548160ff021916908315150217905550620000d2620000bc620000db60201b60201c565b600a620001a960201b6200165c1790919060201c565b50505062000583565b600033905090565b6000600760009054906101000a900473ffffffffffffffffffffffffffffffffffffffff16905081600760006101000a81548173ffffffffffffffffffffffffffffffffffffffff021916908373ffffffffffffffffffffffffffffffffffffffff1602179055508173ffffffffffffffffffffffffffffffffffffffff168173ffffffffffffffffffffffffffffffffffffffff167f8be0079c531659141344cd1fd0a4f28419497f9722a3daafe3b4186f6b6457e060405160405180910390a35050565b6000620001d9836000018373ffffffffffffffffffffffffffffffffffffffff1660001b620001e160201b60201c565b905092915050565b6000620001f583836200025b60201b60201c565b6200025057826000018290806001815401808255809150506001900390600052602060002001600090919091909150558260000180549050836001016000848152602001908152602001600020819055506001905062000255565b600090505b92915050565b600080836001016000848152602001908152602001600020541415905092915050565b8280546200028c90620004a8565b90600052602060002090601f016020900481019282620002b05760008555620002fc565b82601f10620002cb57805160ff1916838001178555620002fc565b82800160010185558215620002fc579182015b82811115620002fb578251825591602001919060010190620002de565b5b5090506200030b91906200030f565b5090565b5b808211156200032a57600081600090555060010162000310565b5090565b6000620003456200033f846200043c565b62000413565b9050828152602081018484840111156200035e57600080fd5b6200036b84828562000472565b509392505050565b600082601f8301126200038557600080fd5b8151620003978482602086016200032e565b91505092915050565b60008060408385031215620003b457600080fd5b600083015167ffffffffffffffff811115620003cf57600080fd5b620003dd8582860162000373565b925050602083015167ffffffffffffffff811115620003fb57600080fd5b620004098582860162000373565b9150509250929050565b60006200041f62000432565b90506200042d8282620004de565b919050565b6000604051905090565b600067ffffffffffffffff8211156200045a576200045962000543565b5b620004658262000572565b9050602081019050919050565b60005b838110156200049257808201518184015260208101905062000475565b83811115620004a2576000848401525b50505050565b60006002820490506001821680620004c157607f821691505b60208210811415620004d857620004d762000514565b5b50919050565b620004e98262000572565b810181811067ffffffffffffffff821117156200050b576200050a62000543565b5b80604052505050565b7f4e487b7100000000000000000000000000000000000000000000000000000000600052602260045260246000fd5b7f4e487b7100000000000000000000000000000000000000000000000000000000600052604160045260246000fd5b6000601f19601f8301169050919050565b61431380620005936000396000f3fe608060405234801561001057600080fd5b50600436106101a95760003560e01c80638456cb59116100f9578063cd7046d011610097578063df68c1a211610071578063df68c1a2146104cc578063e985e9c5146104ea578063f2fde38b1461051a578063f7b188a514610536576101a9565b8063cd7046d014610464578063d76d98e214610480578063dc9b31d1146104b0576101a9565b806395d89b41116100d357806395d89b41146103de578063a22cb465146103fc578063b88d4fde14610418578063c87b56dd14610434576101a9565b80638456cb591461038657806384b7c769146103905780638da5cb5b146103c0576101a9565b806342842e0e116101665780636352211e116101405780636352211e146102fe57806370a082311461032e578063715018a61461035e5780637972201c14610368576101a9565b806342842e0e14610294578063450c9bc6146102b05780635c975abb146102e0576101a9565b806301ffc9a7146101ae57806306fdde03146101de578063081812fc146101fc578063095ea7b31461022c57806323b872dd14610248578063252d3f9114610264575b600080fd5b6101c860048036038101906101c39190612d50565b610540565b6040516101d591906134c4565b60405180910390f35b6101e6610622565b6040516101f391906134df565b60405180910390f35b61021660048036038101906102119190612da2565b6106b4565b604051610223919061343b565b60405180910390f35b61024660048036038101906102419190612d14565b610739565b005b610262600480360381019061025d9190612bba565b610851565b005b61027e60048036038101906102799190612cc0565b6108b1565b60405161028b9190613801565b60405180910390f35b6102ae60048036038101906102a99190612bba565b61094f565b005b6102ca60048036038101906102c59190612e9e565b61096f565b6040516102d791906134a2565b60405180910390f35b6102e8610b35565b6040516102f591906134c4565b60405180910390f35b61031860048036038101906103139190612da2565b610b4c565b604051610325919061343b565b60405180910390f35b61034860048036038101906103439190612b55565b610bfe565b6040516103559190613801565b60405180910390f35b610366610cb6565b005b610370610d3e565b60405161037d9190613801565b60405180910390f35b61038e610d4f565b005b6103aa60048036038101906103a59190612dcb565b610dd5565b6040516103b791906134c4565b60405180910390f35b6103c8610f0f565b6040516103d5919061343b565b60405180910390f35b6103e6610f39565b6040516103f391906134df565b60405180910390f35b61041660048036038101906104119190612c84565b610fcb565b005b610432600480360381019061042d9190612c09565b610fe1565b005b61044e60048036038101906104499190612da2565b611043565b60405161045b91906134df565b60405180910390f35b61047e60048036038101906104799190612b55565b611195565b005b61049a60048036038101906104959190612e1f565b611242565b6040516104a791906134c4565b60405180910390f35b6104ca60048036038101906104c59190612b55565b611345565b005b6104d46113f6565b6040516104e191906134c4565b60405180910390f35b61050460048036038101906104ff9190612b7e565b61144a565b60405161051191906134c4565b60405180910390f35b610534600480360381019061052f9190612b55565b6114de565b005b61053e6115d6565b005b60007f80ac58cd000000000000000000000000000000000000000000000000000000007bffffffffffffffffffffffffffffffffffffffffffffffffffffffff1916827bffffffffffffffffffffffffffffffffffffffffffffffffffffffff1916148061060b57507f5b5e139f000000000000000000000000000000000000000000000000000000007bffffffffffffffffffffffffffffffffffffffffffffffffffffffff1916827bffffffffffffffffffffffffffffffffffffffffffffffffffffffff1916145b8061061b575061061a8261168c565b5b9050919050565b60606000805461063190613aae565b80601f016020809104026020016040519081016040528092919081815260200182805461065d90613aae565b80156106aa5780601f1061067f576101008083540402835291602001916106aa565b820191906000526020600020905b81548152906001019060200180831161068d57829003601f168201915b5050505050905090565b60006106bf826116f6565b6106fe576040517f08c379a00000000000000000000000000000000000000000000000000000000081526004016106f590613721565b60405180910390fd5b6004600083815260200190815260200160002060009054906101000a900473ffffffffffffffffffffffffffffffffffffffff169050919050565b600061074482610b4c565b90508073ffffffffffffffffffffffffffffffffffffffff168373ffffffffffffffffffffffffffffffffffffffff1614156107b5576040517f08c379a00000000000000000000000000000000000000000000000000000000081526004016107ac906137a1565b60405180910390fd5b8073ffffffffffffffffffffffffffffffffffffffff166107d4611762565b73ffffffffffffffffffffffffffffffffffffffff1614806108035750610802816107fd611762565b61144a565b5b610842576040517f08c379a000000000000000000000000000000000000000000000000000000000815260040161083990613661565b60405180910390fd5b61084c838361176a565b505050565b61086261085c611762565b82611823565b6108a1576040517f08c379a0000000000000000000000000000000000000000000000000000000008152600401610898906137c1565b60405180910390fd5b6108ac838383611901565b505050565b60006108bd6008611b5d565b60006108c96008611b73565b90506108d58482611b81565b6108df8184611b9f565b600960008573ffffffffffffffffffffffffffffffffffffffff1673ffffffffffffffffffffffffffffffffffffffff1681526020019081526020016000208190806001815401808255809150506001900390600052602060002001600090919091909150558091505092915050565b61096a83838360405180602001604052806000815250610fe1565b505050565b606060008260ff1667ffffffffffffffff8111156109b6577f4e487b7100000000000000000000000000000000000000000000000000000000600052604160045260246000fd5b6040519080825280602002602001820160405280156109ef57816020015b6109dc61294a565b8152602001906001900390816109d45790505b5090506109fc6008611b73565b841115610a3e576040517f08c379a0000000000000000000000000000000000000000000000000000000008152600401610a3590613601565b60405180910390fd5b6000808590505b8460ff1686610a549190613930565b811015610b2957610a656008611b73565b811115610aa7576040517f08c379a0000000000000000000000000000000000000000000000000000000008152600401610a9e90613601565b60405180910390fd5b6040518060400160405280828152602001610ac183611043565b815250838381518110610afd577f4e487b7100000000000000000000000000000000000000000000000000000000600052603260045260246000fd5b60200260200101819052508180610b1390613b11565b9250508080610b2190613b11565b915050610a45565b50819250505092915050565b6000600760149054906101000a900460ff16905090565b6000806002600084815260200190815260200160002060009054906101000a900473ffffffffffffffffffffffffffffffffffffffff169050600073ffffffffffffffffffffffffffffffffffffffff168173ffffffffffffffffffffffffffffffffffffffff161415610bf5576040517f08c379a0000000000000000000000000000000000000000000000000000000008152600401610bec906136a1565b60405180910390fd5b80915050919050565b60008073ffffffffffffffffffffffffffffffffffffffff168273ffffffffffffffffffffffffffffffffffffffff161415610c6f576040517f08c379a0000000000000000000000000000000000000000000000000000000008152600401610c6690613681565b60405180910390fd5b600360008373ffffffffffffffffffffffffffffffffffffffff1673ffffffffffffffffffffffffffffffffffffffff168152602001908152602001600020549050919050565b610cbe611762565b73ffffffffffffffffffffffffffffffffffffffff16610cdc610f0f565b73ffffffffffffffffffffffffffffffffffffffff1614610d32576040517f08c379a0000000000000000000000000000000000000000000000000000000008152600401610d2990613741565b60405180910390fd5b610d3c6000611c13565b565b6000610d4a6008611b73565b905090565b610d57611762565b73ffffffffffffffffffffffffffffffffffffffff16610d75610f0f565b73ffffffffffffffffffffffffffffffffffffffff1614610dcb576040517f08c379a0000000000000000000000000000000000000000000000000000000008152600401610dc290613741565b60405180910390fd5b610dd3611cd9565b565b600080600c60008581526020019081526020016000208054610df690613aae565b80601f0160208091040260200160405190810160405280929190818152602001828054610e2290613aae565b8015610e6f5780601f10610e4457610100808354040283529160200191610e6f565b820191906000526020600020905b815481529060010190602001808311610e5257829003601f168201915b5050505050905082604051602001610e879190613400565b6040516020818303038152906040528051906020012081604051602001610eae9190613400565b6040516020818303038152906040528051906020012014610f04576040517f08c379a0000000000000000000000000000000000000000000000000000000008152600401610efb90613501565b60405180910390fd5b600191505092915050565b6000600760009054906101000a900473ffffffffffffffffffffffffffffffffffffffff16905090565b606060018054610f4890613aae565b80601f0160208091040260200160405190810160405280929190818152602001828054610f7490613aae565b8015610fc15780601f10610f9657610100808354040283529160200191610fc1565b820191906000526020600020905b815481529060010190602001808311610fa457829003601f168201915b5050505050905090565b610fdd610fd6611762565b8383611d7c565b5050565b610ff2610fec611762565b83611823565b611031576040517f08c379a0000000000000000000000000000000000000000000000000000000008152600401611028906137c1565b60405180910390fd5b61103d84848484611ee9565b50505050565b606061104e826116f6565b61108d576040517f08c379a000000000000000000000000000000000000000000000000000000000815260040161108490613701565b60405180910390fd5b60006006600084815260200190815260200160002080546110ad90613aae565b80601f01602080910402602001604051908101604052809291908181526020018280546110d990613aae565b80156111265780601f106110fb57610100808354040283529160200191611126565b820191906000526020600020905b81548152906001019060200180831161110957829003601f168201915b505050505090506000611137611f45565b905060008151141561114d578192505050611190565b60008251111561118257808260405160200161116a929190613417565b60405160208183030381529060405292505050611190565b61118b84611f5c565b925050505b919050565b61119d611762565b73ffffffffffffffffffffffffffffffffffffffff166111bb610f0f565b73ffffffffffffffffffffffffffffffffffffffff1614611211576040517f08c379a000000000000000000000000000000000000000000000000000000000815260040161120890613741565b60405180910390fd5b61122581600a61200390919063ffffffff16565b61123f5761123d81600a61165c90919063ffffffff16565b505b50565b600061125461124f611762565b612033565b611293576040517f08c379a000000000000000000000000000000000000000000000000000000000815260040161128a906137e1565b60405180910390fd5b61129d6008611b73565b8411156112df576040517f08c379a00000000000000000000000000000000000000000000000000000000081526004016112d690613601565b60405180910390fd5b82600c60008681526020019081526020016000209080519060200190611306929190612964565b50600d84908060018154018082558091505060019003906000526020600020016000909190919091505561133a8483611b9f565b600190509392505050565b61134d611762565b73ffffffffffffffffffffffffffffffffffffffff1661136b610f0f565b73ffffffffffffffffffffffffffffffffffffffff16146113c1576040517f08c379a00000000000000000000000000000000000000000000000000000000081526004016113b890613741565b60405180910390fd5b6113d581600a61200390919063ffffffff16565b6113de57600080fd5b6113f281600a61205090919063ffffffff16565b5050565b6000611400610b35565b1580611445575061140f610f0f565b73ffffffffffffffffffffffffffffffffffffffff1661142d611762565b73ffffffffffffffffffffffffffffffffffffffff16145b905090565b6000600560008473ffffffffffffffffffffffffffffffffffffffff1673ffffffffffffffffffffffffffffffffffffffff16815260200190815260200160002060008373ffffffffffffffffffffffffffffffffffffffff1673ffffffffffffffffffffffffffffffffffffffff16815260200190815260200160002060009054906101000a900460ff16905092915050565b6114e6611762565b73ffffffffffffffffffffffffffffffffffffffff16611504610f0f565b73ffffffffffffffffffffffffffffffffffffffff161461155a576040517f08c379a000000000000000000000000000000000000000000000000000000000815260040161155190613741565b60405180910390fd5b600073ffffffffffffffffffffffffffffffffffffffff168173ffffffffffffffffffffffffffffffffffffffff1614156115ca576040517f08c379a00000000000000000000000000000000000000000000000000000000081526004016115c190613561565b60405180910390fd5b6115d381611c13565b50565b6115de611762565b73ffffffffffffffffffffffffffffffffffffffff166115fc610f0f565b73ffffffffffffffffffffffffffffffffffffffff1614611652576040517f08c379a000000000000000000000000000000000000000000000000000000000815260040161164990613741565b60405180910390fd5b61165a612080565b565b6000611684836000018373ffffffffffffffffffffffffffffffffffffffff1660001b612122565b905092915050565b60007f01ffc9a7000000000000000000000000000000000000000000000000000000007bffffffffffffffffffffffffffffffffffffffffffffffffffffffff1916827bffffffffffffffffffffffffffffffffffffffffffffffffffffffff1916149050919050565b60008073ffffffffffffffffffffffffffffffffffffffff166002600084815260200190815260200160002060009054906101000a900473ffffffffffffffffffffffffffffffffffffffff1673ffffffffffffffffffffffffffffffffffffffff1614159050919050565b600033905090565b816004600083815260200190815260200160002060006101000a81548173ffffffffffffffffffffffffffffffffffffffff021916908373ffffffffffffffffffffffffffffffffffffffff160217905550808273ffffffffffffffffffffffffffffffffffffffff166117dd83610b4c565b73ffffffffffffffffffffffffffffffffffffffff167f8c5be1e5ebec7d5bd14f71427d1e84f3dd0314c0f7b2291e5b200ac8c7c3b92560405160405180910390a45050565b600061182e826116f6565b61186d576040517f08c379a0000000000000000000000000000000000000000000000000000000008152600401611864906135e1565b60405180910390fd5b600061187883610b4c565b90508073ffffffffffffffffffffffffffffffffffffffff168473ffffffffffffffffffffffffffffffffffffffff1614806118e757508373ffffffffffffffffffffffffffffffffffffffff166118cf846106b4565b73ffffffffffffffffffffffffffffffffffffffff16145b806118f857506118f7818561144a565b5b91505092915050565b8273ffffffffffffffffffffffffffffffffffffffff1661192182610b4c565b73ffffffffffffffffffffffffffffffffffffffff1614611977576040517f08c379a000000000000000000000000000000000000000000000000000000000815260040161196e90613761565b60405180910390fd5b600073ffffffffffffffffffffffffffffffffffffffff168273ffffffffffffffffffffffffffffffffffffffff1614156119e7576040517f08c379a00000000000000000000000000000000000000000000000000000000081526004016119de906135a1565b60405180910390fd5b6119f2838383612192565b6119fd60008261176a565b6001600360008573ffffffffffffffffffffffffffffffffffffffff1673ffffffffffffffffffffffffffffffffffffffff1681526020019081526020016000206000828254611a4d91906139b7565b925050819055506001600360008473ffffffffffffffffffffffffffffffffffffffff1673ffffffffffffffffffffffffffffffffffffffff1681526020019081526020016000206000828254611aa49190613930565b92505081905550816002600083815260200190815260200160002060006101000a81548173ffffffffffffffffffffffffffffffffffffffff021916908373ffffffffffffffffffffffffffffffffffffffff160217905550808273ffffffffffffffffffffffffffffffffffffffff168473ffffffffffffffffffffffffffffffffffffffff167fddf252ad1be2c89b69c2b068fc378daa952ba7f163c4a11628f55a4df523b3ef60405160405180910390a4505050565b6001816000016000828254019250508190555050565b600081600001549050919050565b611b9b828260405180602001604052806000815250612221565b5050565b611ba8826116f6565b611be7576040517f08c379a0000000000000000000000000000000000000000000000000000000008152600401611bde906136c1565b60405180910390fd5b80600660008481526020019081526020016000209080519060200190611c0e929190612964565b505050565b6000600760009054906101000a900473ffffffffffffffffffffffffffffffffffffffff16905081600760006101000a81548173ffffffffffffffffffffffffffffffffffffffff021916908373ffffffffffffffffffffffffffffffffffffffff1602179055508173ffffffffffffffffffffffffffffffffffffffff168173ffffffffffffffffffffffffffffffffffffffff167f8be0079c531659141344cd1fd0a4f28419497f9722a3daafe3b4186f6b6457e060405160405180910390a35050565b611ce1610b35565b15611d21576040517f08c379a0000000000000000000000000000000000000000000000000000000008152600401611d1890613621565b60405180910390fd5b6001600760146101000a81548160ff0219169083151502179055507f62e78cea01bee320cd4e420270b5ea74000d11b0c9f74754ebdbfc544b05a258611d65611762565b604051611d72919061343b565b60405180910390a1565b8173ffffffffffffffffffffffffffffffffffffffff168373ffffffffffffffffffffffffffffffffffffffff161415611deb576040517f08c379a0000000000000000000000000000000000000000000000000000000008152600401611de2906135c1565b60405180910390fd5b80600560008573ffffffffffffffffffffffffffffffffffffffff1673ffffffffffffffffffffffffffffffffffffffff16815260200190815260200160002060008473ffffffffffffffffffffffffffffffffffffffff1673ffffffffffffffffffffffffffffffffffffffff16815260200190815260200160002060006101000a81548160ff0219169083151502179055508173ffffffffffffffffffffffffffffffffffffffff168373ffffffffffffffffffffffffffffffffffffffff167f17307eab39ab6107e8899845ad3d59bd9653f200f220920489ca2b5937696c3183604051611edc91906134c4565b60405180910390a3505050565b611ef4848484611901565b611f008484848461227c565b611f3f576040517f08c379a0000000000000000000000000000000000000000000000000000000008152600401611f3690613541565b60405180910390fd5b50505050565b606060405180602001604052806000815250905090565b6060611f67826116f6565b611fa6576040517f08c379a0000000000000000000000000000000000000000000000000000000008152600401611f9d90613781565b60405180910390fd5b6000611fb0611f45565b90506000815111611fd05760405180602001604052806000815250611ffb565b80611fda84612413565b604051602001611feb929190613417565b6040516020818303038152906040525b915050919050565b600061202b836000018373ffffffffffffffffffffffffffffffffffffffff1660001b6125c0565b905092915050565b600061204982600a61200390919063ffffffff16565b9050919050565b6000612078836000018373ffffffffffffffffffffffffffffffffffffffff1660001b6125e3565b905092915050565b612088610b35565b6120c7576040517f08c379a00000000000000000000000000000000000000000000000000000000081526004016120be90613521565b60405180910390fd5b6000600760146101000a81548160ff0219169083151502179055507f5db9ee0a495bf2e6ff9c91a7834c1ba4fdd244a5e8aa4e537bd38aeae4b073aa61210b611762565b604051612118919061343b565b60405180910390a1565b600061212e83836125c0565b61218757826000018290806001815401808255809150506001900390600052602060002001600090919091909150558260000180549050836001016000848152602001908152602001600020819055506001905061218c565b600090505b92915050565b61219a610b35565b1561221c576121a7610f0f565b73ffffffffffffffffffffffffffffffffffffffff166121c5611762565b73ffffffffffffffffffffffffffffffffffffffff161461221b576040517f08c379a000000000000000000000000000000000000000000000000000000000815260040161221290613641565b60405180910390fd5b5b505050565b61222b8383612769565b612238600084848461227c565b612277576040517f08c379a000000000000000000000000000000000000000000000000000000000815260040161226e90613541565b60405180910390fd5b505050565b600061229d8473ffffffffffffffffffffffffffffffffffffffff16612937565b15612406578373ffffffffffffffffffffffffffffffffffffffff1663150b7a026122c6611762565b8786866040518563ffffffff1660e01b81526004016122e89493929190613456565b602060405180830381600087803b15801561230257600080fd5b505af192505050801561233357506040513d601f19601f820116820180604052508101906123309190612d79565b60015b6123b6573d8060008114612363576040519150601f19603f3d011682016040523d82523d6000602084013e612368565b606091505b506000815114156123ae576040517f08c379a00000000000000000000000000000000000000000000000000000000081526004016123a590613541565b60405180910390fd5b805181602001fd5b63150b7a0260e01b7bffffffffffffffffffffffffffffffffffffffffffffffffffffffff1916817bffffffffffffffffffffffffffffffffffffffffffffffffffffffff19161491505061240b565b600190505b949350505050565b6060600082141561245b576040518060400160405280600181526020017f300000000000000000000000000000000000000000000000000000000000000081525090506125bb565b600082905060005b6000821461248d57808061247690613b11565b915050600a826124869190613986565b9150612463565b60008167ffffffffffffffff8111156124cf577f4e487b7100000000000000000000000000000000000000000000000000000000600052604160045260246000fd5b6040519080825280601f01601f1916602001820160405280156125015781602001600182028036833780820191505090505b5090505b600085146125b45760018261251a91906139b7565b9150600a856125299190613b5a565b60306125359190613930565b60f81b818381518110612571577f4e487b7100000000000000000000000000000000000000000000000000000000600052603260045260246000fd5b60200101907effffffffffffffffffffffffffffffffffffffffffffffffffffffffffffff1916908160001a905350600a856125ad9190613986565b9450612505565b8093505050505b919050565b600080836001016000848152602001908152602001600020541415905092915050565b6000808360010160008481526020019081526020016000205490506000811461275d57600060018261261591906139b7565b905060006001866000018054905061262d91906139b7565b90508181146126e8576000866000018281548110612674577f4e487b7100000000000000000000000000000000000000000000000000000000600052603260045260246000fd5b90600052602060002001549050808760000184815481106126be577f4e487b7100000000000000000000000000000000000000000000000000000000600052603260045260246000fd5b90600052602060002001819055508387600101600083815260200190815260200160002081905550505b85600001805480612722577f4e487b7100000000000000000000000000000000000000000000000000000000600052603160045260246000fd5b600190038181906000526020600020016000905590558560010160008681526020019081526020016000206000905560019350505050612763565b60009150505b92915050565b600073ffffffffffffffffffffffffffffffffffffffff168273ffffffffffffffffffffffffffffffffffffffff1614156127d9576040517f08c379a00000000000000000000000000000000000000000000000000000000081526004016127d0906136e1565b60405180910390fd5b6127e2816116f6565b15612822576040517f08c379a000000000000000000000000000000000000000000000000000000000815260040161281990613581565b60405180910390fd5b61282e60008383612192565b6001600360008473ffffffffffffffffffffffffffffffffffffffff1673ffffffffffffffffffffffffffffffffffffffff168152602001908152602001600020600082825461287e9190613930565b92505081905550816002600083815260200190815260200160002060006101000a81548173ffffffffffffffffffffffffffffffffffffffff021916908373ffffffffffffffffffffffffffffffffffffffff160217905550808273ffffffffffffffffffffffffffffffffffffffff16600073ffffffffffffffffffffffffffffffffffffffff167fddf252ad1be2c89b69c2b068fc378daa952ba7f163c4a11628f55a4df523b3ef60405160405180910390a45050565b600080823b905060008111915050919050565b604051806040016040528060008152602001606081525090565b82805461297090613aae565b90600052602060002090601f01602090048101928261299257600085556129d9565b82601f106129ab57805160ff19168380011785556129d9565b828001600101855582156129d9579182015b828111156129d85782518255916020019190600101906129bd565b5b5090506129e691906129ea565b5090565b5b80821115612a035760008160009055506001016129eb565b5090565b6000612a1a612a1584613841565b61381c565b905082815260208101848484011115612a3257600080fd5b612a3d848285613a6c565b509392505050565b6000612a58612a5384613872565b61381c565b905082815260208101848484011115612a7057600080fd5b612a7b848285613a6c565b509392505050565b600081359050612a928161426a565b92915050565b600081359050612aa781614281565b92915050565b600081359050612abc81614298565b92915050565b600081519050612ad181614298565b92915050565b600082601f830112612ae857600080fd5b8135612af8848260208601612a07565b91505092915050565b600082601f830112612b1257600080fd5b8135612b22848260208601612a45565b91505092915050565b600081359050612b3a816142af565b92915050565b600081359050612b4f816142c6565b92915050565b600060208284031215612b6757600080fd5b6000612b7584828501612a83565b91505092915050565b60008060408385031215612b9157600080fd5b6000612b9f85828601612a83565b9250506020612bb085828601612a83565b9150509250929050565b600080600060608486031215612bcf57600080fd5b6000612bdd86828701612a83565b9350506020612bee86828701612a83565b9250506040612bff86828701612b2b565b9150509250925092565b60008060008060808587031215612c1f57600080fd5b6000612c2d87828801612a83565b9450506020612c3e87828801612a83565b9350506040612c4f87828801612b2b565b925050606085013567ffffffffffffffff811115612c6c57600080fd5b612c7887828801612ad7565b91505092959194509250565b60008060408385031215612c9757600080fd5b6000612ca585828601612a83565b9250506020612cb685828601612a98565b9150509250929050565b60008060408385031215612cd357600080fd5b6000612ce185828601612a83565b925050602083013567ffffffffffffffff811115612cfe57600080fd5b612d0a85828601612b01565b9150509250929050565b60008060408385031215612d2757600080fd5b6000612d3585828601612a83565b9250506020612d4685828601612b2b565b9150509250929050565b600060208284031215612d6257600080fd5b6000612d7084828501612aad565b91505092915050565b600060208284031215612d8b57600080fd5b6000612d9984828501612ac2565b91505092915050565b600060208284031215612db457600080fd5b6000612dc284828501612b2b565b91505092915050565b60008060408385031215612dde57600080fd5b6000612dec85828601612b2b565b925050602083013567ffffffffffffffff811115612e0957600080fd5b612e1585828601612b01565b9150509250929050565b600080600060608486031215612e3457600080fd5b6000612e4286828701612b2b565b935050602084013567ffffffffffffffff811115612e5f57600080fd5b612e6b86828701612b01565b925050604084013567ffffffffffffffff811115612e8857600080fd5b612e9486828701612b01565b9150509250925092565b60008060408385031215612eb157600080fd5b6000612ebf85828601612b2b565b9250506020612ed085828601612b40565b9150509250929050565b6000612ee683836133a5565b905092915050565b612ef7816139eb565b82525050565b6000612f08826138b3565b612f1281856138e1565b935083602082028501612f24856138a3565b8060005b85811015612f605784840389528151612f418582612eda565b9450612f4c836138d4565b925060208a01995050600181019050612f28565b50829750879550505050505092915050565b612f7b816139fd565b82525050565b6000612f8c826138be565b612f9681856138f2565b9350612fa6818560208601613a7b565b612faf81613c47565b840191505092915050565b6000612fc5826138c9565b612fcf8185613903565b9350612fdf818560208601613a7b565b612fe881613c47565b840191505092915050565b6000612ffe826138c9565b6130088185613914565b9350613018818560208601613a7b565b61302181613c47565b840191505092915050565b6000613037826138c9565b6130418185613925565b9350613051818560208601613a7b565b80840191505092915050565b600061306a600b83613914565b915061307582613c58565b602082019050919050565b600061308d601483613914565b915061309882613c81565b602082019050919050565b60006130b0603283613914565b91506130bb82613caa565b604082019050919050565b60006130d3602683613914565b91506130de82613cf9565b604082019050919050565b60006130f6601c83613914565b915061310182613d48565b602082019050919050565b6000613119602483613914565b915061312482613d71565b604082019050919050565b600061313c601983613914565b915061314782613dc0565b602082019050919050565b600061315f602c83613914565b915061316a82613de9565b604082019050919050565b6000613182600f83613914565b915061318d82613e38565b602082019050919050565b60006131a5601083613914565b91506131b082613e61565b602082019050919050565b60006131c8602f83613914565b91506131d382613e8a565b604082019050919050565b60006131eb603883613914565b91506131f682613ed9565b604082019050919050565b600061320e602a83613914565b915061321982613f28565b604082019050919050565b6000613231602983613914565b915061323c82613f77565b604082019050919050565b6000613254602e83613914565b915061325f82613fc6565b604082019050919050565b6000613277602083613914565b915061328282614015565b602082019050919050565b600061329a603183613914565b91506132a58261403e565b604082019050919050565b60006132bd602c83613914565b91506132c88261408d565b604082019050919050565b60006132e0602083613914565b91506132eb826140dc565b602082019050919050565b6000613303602983613914565b915061330e82614105565b604082019050919050565b6000613326602f83613914565b915061333182614154565b604082019050919050565b6000613349602183613914565b9150613354826141a3565b604082019050919050565b600061336c603183613914565b9150613377826141f2565b604082019050919050565b600061338f601283613914565b915061339a82614241565b602082019050919050565b60006040830160008301516133bd60008601826133e2565b50602083015184820360208601526133d58282612fba565b9150508091505092915050565b6133eb81613a55565b82525050565b6133fa81613a55565b82525050565b600061340c828461302c565b915081905092915050565b6000613423828561302c565b915061342f828461302c565b91508190509392505050565b60006020820190506134506000830184612eee565b92915050565b600060808201905061346b6000830187612eee565b6134786020830186612eee565b61348560408301856133f1565b81810360608301526134978184612f81565b905095945050505050565b600060208201905081810360008301526134bc8184612efd565b905092915050565b60006020820190506134d96000830184612f72565b92915050565b600060208201905081810360008301526134f98184612ff3565b905092915050565b6000602082019050818103600083015261351a8161305d565b9050919050565b6000602082019050818103600083015261353a81613080565b9050919050565b6000602082019050818103600083015261355a816130a3565b9050919050565b6000602082019050818103600083015261357a816130c6565b9050919050565b6000602082019050818103600083015261359a816130e9565b9050919050565b600060208201905081810360008301526135ba8161310c565b9050919050565b600060208201905081810360008301526135da8161312f565b9050919050565b600060208201905081810360008301526135fa81613152565b9050919050565b6000602082019050818103600083015261361a81613175565b9050919050565b6000602082019050818103600083015261363a81613198565b9050919050565b6000602082019050818103600083015261365a816131bb565b9050919050565b6000602082019050818103600083015261367a816131de565b9050919050565b6000602082019050818103600083015261369a81613201565b9050919050565b600060208201905081810360008301526136ba81613224565b9050919050565b600060208201905081810360008301526136da81613247565b9050919050565b600060208201905081810360008301526136fa8161326a565b9050919050565b6000602082019050818103600083015261371a8161328d565b9050919050565b6000602082019050818103600083015261373a816132b0565b9050919050565b6000602082019050818103600083015261375a816132d3565b9050919050565b6000602082019050818103600083015261377a816132f6565b9050919050565b6000602082019050818103600083015261379a81613319565b9050919050565b600060208201905081810360008301526137ba8161333c565b9050919050565b600060208201905081810360008301526137da8161335f565b9050919050565b600060208201905081810360008301526137fa81613382565b9050919050565b600060208201905061381660008301846133f1565b92915050565b6000613826613837565b90506138328282613ae0565b919050565b6000604051905090565b600067ffffffffffffffff82111561385c5761385b613c18565b5b61386582613c47565b9050602081019050919050565b600067ffffffffffffffff82111561388d5761388c613c18565b5b61389682613c47565b9050602081019050919050565b6000819050602082019050919050565b600081519050919050565b600081519050919050565b600081519050919050565b6000602082019050919050565b600082825260208201905092915050565b600082825260208201905092915050565b600082825260208201905092915050565b600082825260208201905092915050565b600081905092915050565b600061393b82613a55565b915061394683613a55565b9250827fffffffffffffffffffffffffffffffffffffffffffffffffffffffffffffffff0382111561397b5761397a613b8b565b5b828201905092915050565b600061399182613a55565b915061399c83613a55565b9250826139ac576139ab613bba565b5b828204905092915050565b60006139c282613a55565b91506139cd83613a55565b9250828210156139e0576139df613b8b565b5b828203905092915050565b60006139f682613a35565b9050919050565b60008115159050919050565b60007fffffffff0000000000000000000000000000000000000000000000000000000082169050919050565b600073ffffffffffffffffffffffffffffffffffffffff82169050919050565b6000819050919050565b600060ff82169050919050565b82818337600083830152505050565b60005b83811015613a99578082015181840152602081019050613a7e565b83811115613aa8576000848401525b50505050565b60006002820490506001821680613ac657607f821691505b60208210811415613ada57613ad9613be9565b5b50919050565b613ae982613c47565b810181811067ffffffffffffffff82111715613b0857613b07613c18565b5b80604052505050565b6000613b1c82613a55565b91507fffffffffffffffffffffffffffffffffffffffffffffffffffffffffffffffff821415613b4f57613b4e613b8b565b5b600182019050919050565b6000613b6582613a55565b9150613b7083613a55565b925082613b8057613b7f613bba565b5b828206905092915050565b7f4e487b7100000000000000000000000000000000000000000000000000000000600052601160045260246000fd5b7f4e487b7100000000000000000000000000000000000000000000000000000000600052601260045260246000fd5b7f4e487b7100000000000000000000000000000000000000000000000000000000600052602260045260246000fd5b7f4e487b7100000000000000000000000000000000000000000000000000000000600052604160045260246000fd5b6000601f19601f8301169050919050565b7f496e76616c696420646f63000000000000000000000000000000000000000000600082015250565b7f5061757361626c653a206e6f7420706175736564000000000000000000000000600082015250565b7f4552433732313a207472616e7366657220746f206e6f6e20455243373231526560008201527f63656976657220696d706c656d656e7465720000000000000000000000000000602082015250565b7f4f776e61626c653a206e6577206f776e657220697320746865207a65726f206160008201527f6464726573730000000000000000000000000000000000000000000000000000602082015250565b7f4552433732313a20746f6b656e20616c7265616479206d696e74656400000000600082015250565b7f4552433732313a207472616e7366657220746f20746865207a65726f2061646460008201527f7265737300000000000000000000000000000000000000000000000000000000602082015250565b7f4552433732313a20617070726f766520746f2063616c6c657200000000000000600082015250565b7f4552433732313a206f70657261746f7220717565727920666f72206e6f6e657860008201527f697374656e7420746f6b656e0000000000000000000000000000000000000000602082015250565b7f4e6f7420612076616c6964206e66740000000000000000000000000000000000600082015250565b7f5061757361626c653a2070617573656400000000000000000000000000000000600082015250565b7f4f6e6c7920746865204f776e65722063616e205472616e73666572206f72204d60008201527f696e7420756e74696c2070617573650000000000000000000000000000000000602082015250565b7f4552433732313a20617070726f76652063616c6c6572206973206e6f74206f7760008201527f6e6572206e6f7220617070726f76656420666f7220616c6c0000000000000000602082015250565b7f4552433732313a2062616c616e636520717565727920666f7220746865207a6560008201527f726f206164647265737300000000000000000000000000000000000000000000602082015250565b7f4552433732313a206f776e657220717565727920666f72206e6f6e657869737460008201527f656e7420746f6b656e0000000000000000000000000000000000000000000000602082015250565b7f45524337323155524953746f726167653a2055524920736574206f66206e6f6e60008201527f6578697374656e7420746f6b656e000000000000000000000000000000000000602082015250565b7f4552433732313a206d696e7420746f20746865207a65726f2061646472657373600082015250565b7f45524337323155524953746f726167653a2055524920717565727920666f722060008201527f6e6f6e6578697374656e7420746f6b656e000000000000000000000000000000602082015250565b7f4552433732313a20617070726f76656420717565727920666f72206e6f6e657860008201527f697374656e7420746f6b656e0000000000000000000000000000000000000000602082015250565b7f4f776e61626c653a2063616c6c6572206973206e6f7420746865206f776e6572600082015250565b7f4552433732313a207472616e73666572206f6620746f6b656e2074686174206960008201527f73206e6f74206f776e0000000000000000000000000000000000000000000000602082015250565b7f4552433732314d657461646174613a2055524920717565727920666f72206e6f60008201527f6e6578697374656e7420746f6b656e0000000000000000000000000000000000602082015250565b7f4552433732313a20617070726f76616c20746f2063757272656e74206f776e6560008201527f7200000000000000000000000000000000000000000000000000000000000000602082015250565b7f4552433732313a207472616e736665722063616c6c6572206973206e6f74206f60008201527f776e6572206e6f7220617070726f766564000000000000000000000000000000602082015250565b7f4e6f742061206c6567616c206d656d6265720000000000000000000000000000600082015250565b614273816139eb565b811461427e57600080fd5b50565b61428a816139fd565b811461429557600080fd5b50565b6142a181613a09565b81146142ac57600080fd5b50565b6142b881613a55565b81146142c357600080fd5b50565b6142cf81613a5f565b81146142da57600080fd5b5056fea26469706673582212204520b65380b5962df1c6807c950c55919e4958bf76ca7ea74b4d504aaa8db3ae64736f6c63430008040033",
  "linkReferences": {},
  "deployedLinkReferences": {}
}