{
  "_format": "hh-sol-artifact-1",
  "contractName": "BondNft",
  "sourceName": "contracts/BondNft.sol",
  "abi": [
    {
      "inputs": [
        {
          "internalType": "string",
          "name": "name_",
          "type": "string"
        },
        {
          "internalType": "string",
          "name": "symbol_",
          "type": "string"
        }
      ],
      "stateMutability": "nonpayable",
      "type": "constructor"
    },
    {
      "anonymous": false,
      "inputs": [
        {
          "indexed": true,
          "internalType": "address",
          "name": "owner",
          "type": "address"
        },
        {
          "indexed": true,
          "internalType": "address",
          "name": "approved",
          "type": "address"
        },
        {
          "indexed": true,
          "internalType": "uint256",
          "name": "tokenId",
          "type": "uint256"
        }
      ],
      "name": "Approval",
      "type": "event"
    },
    {
      "anonymous": false,
      "inputs": [
        {
          "indexed": true,
          "internalType": "address",
          "name": "owner",
          "type": "address"
        },
        {
          "indexed": true,
          "internalType": "address",
          "name": "operator",
          "type": "address"
        },
        {
          "indexed": false,
          "internalType": "bool",
          "name": "approved",
          "type": "bool"
        }
      ],
      "name": "ApprovalForAll",
      "type": "event"
    },
    {
      "anonymous": false,
      "inputs": [
        {
          "indexed": true,
          "internalType": "address",
          "name": "previousOwner",
          "type": "address"
        },
        {
          "indexed": true,
          "internalType": "address",
          "name": "newOwner",
          "type": "address"
        }
      ],
      "name": "OwnershipTransferred",
      "type": "event"
    },
    {
      "anonymous": false,
      "inputs": [
        {
          "indexed": false,
          "internalType": "address",
          "name": "account",
          "type": "address"
        }
      ],
      "name": "Paused",
      "type": "event"
    },
    {
      "anonymous": false,
      "inputs": [
        {
          "indexed": true,
          "internalType": "address",
          "name": "from",
          "type": "address"
        },
        {
          "indexed": true,
          "internalType": "address",
          "name": "to",
          "type": "address"
        },
        {
          "indexed": true,
          "internalType": "uint256",
          "name": "tokenId",
          "type": "uint256"
        }
      ],
      "name": "Transfer",
      "type": "event"
    },
    {
      "anonymous": false,
      "inputs": [
        {
          "indexed": false,
          "internalType": "address",
          "name": "account",
          "type": "address"
        }
      ],
      "name": "Unpaused",
      "type": "event"
    },
    {
      "inputs": [
        {
          "internalType": "address",
          "name": "legalMember_",
          "type": "address"
        }
      ],
      "name": "addLegalRole",
      "outputs": [],
      "stateMutability": "nonpayable",
      "type": "function"
    },
    {
      "inputs": [
        {
          "internalType": "address",
          "name": "to",
          "type": "address"
        },
        {
          "internalType": "uint256",
          "name": "tokenId",
          "type": "uint256"
        }
      ],
      "name": "approve",
      "outputs": [],
      "stateMutability": "nonpayable",
      "type": "function"
    },
    {
      "inputs": [
        {
          "internalType": "address",
          "name": "owner",
          "type": "address"
        }
      ],
      "name": "balanceOf",
      "outputs": [
        {
          "internalType": "uint256",
          "name": "",
          "type": "uint256"
        }
      ],
      "stateMutability": "view",
      "type": "function"
    },
    {
      "inputs": [],
      "name": "canTransfer",
      "outputs": [
        {
          "internalType": "bool",
          "name": "_status",
          "type": "bool"
        }
      ],
      "stateMutability": "view",
      "type": "function"
    },
    {
      "inputs": [
        {
          "internalType": "uint256",
          "name": "start_",
          "type": "uint256"
        },
        {
          "internalType": "uint8",
          "name": "bondCount_",
          "type": "uint8"
        }
      ],
      "name": "getAllBonds",
      "outputs": [
        {
          "components": [
            {
              "internalType": "uint256",
              "name": "bondId",
              "type": "uint256"
            },
            {
              "internalType": "string",
              "name": "cid",
              "type": "string"
            }
          ],
          "internalType": "struct bondDetails[]",
          "name": "",
          "type": "tuple[]"
        }
      ],
      "stateMutability": "view",
      "type": "function"
    },
    {
      "inputs": [
        {
          "internalType": "uint256",
          "name": "tokenId",
          "type": "uint256"
        }
      ],
      "name": "getApproved",
      "outputs": [
        {
          "internalType": "address",
          "name": "",
          "type": "address"
        }
      ],
      "stateMutability": "view",
      "type": "function"
    },
    {
      "inputs": [
        {
          "internalType": "address",
          "name": "owner",
          "type": "address"
        },
        {
          "internalType": "address",
          "name": "operator",
          "type": "address"
        }
      ],
      "name": "isApprovedForAll",
      "outputs": [
        {
          "internalType": "bool",
          "name": "",
          "type": "bool"
        }
      ],
      "stateMutability": "view",
      "type": "function"
    },
    {
      "inputs": [
        {
          "internalType": "address",
          "name": "to_",
          "type": "address"
        },
        {
          "internalType": "string",
          "name": "storageUri_",
          "type": "string"
        }
      ],
      "name": "mintABond",
      "outputs": [
        {
          "internalType": "uint256",
          "name": "",
          "type": "uint256"
        }
      ],
      "stateMutability": "nonpayable",
      "type": "function"
    },
    {
      "inputs": [],
      "name": "name",
      "outputs": [
        {
          "internalType": "string",
          "name": "",
          "type": "string"
        }
      ],
      "stateMutability": "view",
      "type": "function"
    },
    {
      "inputs": [],
      "name": "owner",
      "outputs": [
        {
          "internalType": "address",
          "name": "",
          "type": "address"
        }
      ],
      "stateMutability": "view",
      "type": "function"
    },
    {
      "inputs": [
        {
          "internalType": "uint256",
          "name": "tokenId",
          "type": "uint256"
        }
      ],
      "name": "ownerOf",
      "outputs": [
        {
          "internalType": "address",
          "name": "",
          "type": "address"
        }
      ],
      "stateMutability": "view",
      "type": "function"
    },
    {
      "inputs": [],
      "name": "pause",
      "outputs": [],
      "stateMutability": "nonpayable",
      "type": "function"
    },
    {
      "inputs": [],
      "name": "paused",
      "outputs": [
        {
          "internalType": "bool",
          "name": "",
          "type": "bool"
        }
      ],
      "stateMutability": "view",
      "type": "function"
    },
    {
      "inputs": [
        {
          "internalType": "address",
          "name": "legalMember_",
          "type": "address"
        }
      ],
      "name": "removeLegalRole",
      "outputs": [],
      "stateMutability": "nonpayable",
      "type": "function"
    },
    {
      "inputs": [],
      "name": "renounceOwnership",
      "outputs": [],
      "stateMutability": "nonpayable",
      "type": "function"
    },
    {
      "inputs": [
        {
          "internalType": "address",
          "name": "from",
          "type": "address"
        },
        {
          "internalType": "address",
          "name": "to",
          "type": "address"
        },
        {
          "internalType": "uint256",
          "name": "tokenId",
          "type": "uint256"
        }
      ],
      "name": "safeTransferFrom",
      "outputs": [],
      "stateMutability": "nonpayable",
      "type": "function"
    },
    {
      "inputs": [
        {
          "internalType": "address",
          "name": "from",
          "type": "address"
        },
        {
          "internalType": "address",
          "name": "to",
          "type": "address"
        },
        {
          "internalType": "uint256",
          "name": "tokenId",
          "type": "uint256"
        },
        {
          "internalType": "bytes",
          "name": "_data",
          "type": "bytes"
        }
      ],
      "name": "safeTransferFrom",
      "outputs": [],
      "stateMutability": "nonpayable",
      "type": "function"
    },
    {
      "inputs": [
        {
          "internalType": "address",
          "name": "operator",
          "type": "address"
        },
        {
          "internalType": "bool",
          "name": "approved",
          "type": "bool"
        }
      ],
      "name": "setApprovalForAll",
      "outputs": [],
      "stateMutability": "nonpayable",
      "type": "function"
    },
    {
      "inputs": [
        {
          "internalType": "bytes4",
          "name": "interfaceId",
          "type": "bytes4"
        }
      ],
      "name": "supportsInterface",
      "outputs": [
        {
          "internalType": "bool",
          "name": "",
          "type": "bool"
        }
      ],
      "stateMutability": "view",
      "type": "function"
    },
    {
      "inputs": [],
      "name": "symbol",
      "outputs": [
        {
          "internalType": "string",
          "name": "",
          "type": "string"
        }
      ],
      "stateMutability": "view",
      "type": "function"
    },
    {
      "inputs": [
        {
          "internalType": "uint256",
          "name": "tokenId",
          "type": "uint256"
        }
      ],
      "name": "tokenURI",
      "outputs": [
        {
          "internalType": "string",
          "name": "",
          "type": "string"
        }
      ],
      "stateMutability": "view",
      "type": "function"
    },
    {
      "inputs": [
        {
          "internalType": "address",
          "name": "from",
          "type": "address"
        },
        {
          "internalType": "address",
          "name": "to",
          "type": "address"
        },
        {
          "internalType": "uint256",
          "name": "tokenId",
          "type": "uint256"
        }
      ],
      "name": "transferFrom",
      "outputs": [],
      "stateMutability": "nonpayable",
      "type": "function"
    },
    {
      "inputs": [
        {
          "internalType": "address",
          "name": "newOwner",
          "type": "address"
        }
      ],
      "name": "transferOwnership",
      "outputs": [],
      "stateMutability": "nonpayable",
      "type": "function"
    },
    {
      "inputs": [],
      "name": "unPause",
      "outputs": [],
      "stateMutability": "nonpayable",
      "type": "function"
    },
    {
      "inputs": [
        {
          "internalType": "uint256",
          "name": "id_",
          "type": "uint256"
        },
        {
          "internalType": "string",
          "name": "hashedDoc_",
          "type": "string"
        },
        {
          "internalType": "string",
          "name": "storageUri_",
          "type": "string"
        }
      ],
      "name": "updateABond",
      "outputs": [
        {
          "internalType": "bool",
          "name": "",
          "type": "bool"
        }
      ],
      "stateMutability": "nonpayable",
      "type": "function"
    },
    {
      "inputs": [
        {
          "internalType": "uint256",
          "name": "id_",
          "type": "uint256"
        },
        {
          "internalType": "string",
          "name": "hashedDoc_",
          "type": "string"
        }
      ],
      "name": "verifyBond",
      "outputs": [
        {
          "internalType": "bool",
          "name": "",
          "type": "bool"
        }
      ],
      "stateMutability": "view",
      "type": "function"
    }
  ],
  "bytecode": "0x60806040523480156200001157600080fd5b506040516200485c3803806200485c8339818101604052810190620000379190620003a0565b81818160009080519060200190620000519291906200027e565b5080600190805190602001906200006a9291906200027e565b5050506200008d62000081620000db60201b60201c565b620000e360201b60201c565b6000600760146101000a81548160ff021916908315150217905550620000d2620000bc620000db60201b60201c565b600a620001a960201b620016121790919060201c565b50505062000583565b600033905090565b6000600760009054906101000a900473ffffffffffffffffffffffffffffffffffffffff16905081600760006101000a81548173ffffffffffffffffffffffffffffffffffffffff021916908373ffffffffffffffffffffffffffffffffffffffff1602179055508173ffffffffffffffffffffffffffffffffffffffff168173ffffffffffffffffffffffffffffffffffffffff167f8be0079c531659141344cd1fd0a4f28419497f9722a3daafe3b4186f6b6457e060405160405180910390a35050565b6000620001d9836000018373ffffffffffffffffffffffffffffffffffffffff1660001b620001e160201b60201c565b905092915050565b6000620001f583836200025b60201b60201c565b6200025057826000018290806001815401808255809150506001900390600052602060002001600090919091909150558260000180549050836001016000848152602001908152602001600020819055506001905062000255565b600090505b92915050565b600080836001016000848152602001908152602001600020541415905092915050565b8280546200028c90620004a8565b90600052602060002090601f016020900481019282620002b05760008555620002fc565b82601f10620002cb57805160ff1916838001178555620002fc565b82800160010185558215620002fc579182015b82811115620002fb578251825591602001919060010190620002de565b5b5090506200030b91906200030f565b5090565b5b808211156200032a57600081600090555060010162000310565b5090565b6000620003456200033f846200043c565b62000413565b9050828152602081018484840111156200035e57600080fd5b6200036b84828562000472565b509392505050565b600082601f8301126200038557600080fd5b8151620003978482602086016200032e565b91505092915050565b60008060408385031215620003b457600080fd5b600083015167ffffffffffffffff811115620003cf57600080fd5b620003dd8582860162000373565b925050602083015167ffffffffffffffff811115620003fb57600080fd5b620004098582860162000373565b9150509250929050565b60006200041f62000432565b90506200042d8282620004de565b919050565b6000604051905090565b600067ffffffffffffffff8211156200045a576200045962000543565b5b620004658262000572565b9050602081019050919050565b60005b838110156200049257808201518184015260208101905062000475565b83811115620004a2576000848401525b50505050565b60006002820490506001821680620004c157607f821691505b60208210811415620004d857620004d762000514565b5b50919050565b620004e98262000572565b810181811067ffffffffffffffff821117156200050b576200050a62000543565b5b80604052505050565b7f4e487b7100000000000000000000000000000000000000000000000000000000600052602260045260246000fd5b7f4e487b7100000000000000000000000000000000000000000000000000000000600052604160045260246000fd5b6000601f19601f8301169050919050565b6142c980620005936000396000f3fe608060405234801561001057600080fd5b506004361061018e5760003560e01c806384b7c769116100de578063cd7046d011610097578063df68c1a211610071578063df68c1a214610493578063e985e9c5146104b1578063f2fde38b146104e1578063f7b188a5146104fd5761018e565b8063cd7046d01461042b578063d76d98e214610447578063dc9b31d1146104775761018e565b806384b7c769146103575780638da5cb5b1461038757806395d89b41146103a5578063a22cb465146103c3578063b88d4fde146103df578063c87b56dd146103fb5761018e565b806342842e0e1161014b5780636352211e116101255780636352211e146102e357806370a0823114610313578063715018a6146103435780638456cb591461034d5761018e565b806342842e0e14610279578063450c9bc6146102955780635c975abb146102c55761018e565b806301ffc9a71461019357806306fdde03146101c3578063081812fc146101e1578063095ea7b31461021157806323b872dd1461022d578063252d3f9114610249575b600080fd5b6101ad60048036038101906101a89190612d06565b610507565b6040516101ba919061347a565b60405180910390f35b6101cb6105e9565b6040516101d89190613495565b60405180910390f35b6101fb60048036038101906101f69190612d58565b61067b565b60405161020891906133f1565b60405180910390f35b61022b60048036038101906102269190612cca565b610700565b005b61024760048036038101906102429190612b70565b610818565b005b610263600480360381019061025e9190612c76565b610878565b60405161027091906137b7565b60405180910390f35b610293600480360381019061028e9190612b70565b610916565b005b6102af60048036038101906102aa9190612e54565b610936565b6040516102bc9190613458565b60405180910390f35b6102cd610afc565b6040516102da919061347a565b60405180910390f35b6102fd60048036038101906102f89190612d58565b610b13565b60405161030a91906133f1565b60405180910390f35b61032d60048036038101906103289190612b0b565b610bc5565b60405161033a91906137b7565b60405180910390f35b61034b610c7d565b005b610355610d05565b005b610371600480360381019061036c9190612d81565b610d8b565b60405161037e919061347a565b60405180910390f35b61038f610ec5565b60405161039c91906133f1565b60405180910390f35b6103ad610eef565b6040516103ba9190613495565b60405180910390f35b6103dd60048036038101906103d89190612c3a565b610f81565b005b6103f960048036038101906103f49190612bbf565b610f97565b005b61041560048036038101906104109190612d58565b610ff9565b6040516104229190613495565b60405180910390f35b61044560048036038101906104409190612b0b565b61114b565b005b610461600480360381019061045c9190612dd5565b6111f8565b60405161046e919061347a565b60405180910390f35b610491600480360381019061048c9190612b0b565b6112fb565b005b61049b6113ac565b6040516104a8919061347a565b60405180910390f35b6104cb60048036038101906104c69190612b34565b611400565b6040516104d8919061347a565b60405180910390f35b6104fb60048036038101906104f69190612b0b565b611494565b005b61050561158c565b005b60007f80ac58cd000000000000000000000000000000000000000000000000000000007bffffffffffffffffffffffffffffffffffffffffffffffffffffffff1916827bffffffffffffffffffffffffffffffffffffffffffffffffffffffff191614806105d257507f5b5e139f000000000000000000000000000000000000000000000000000000007bffffffffffffffffffffffffffffffffffffffffffffffffffffffff1916827bffffffffffffffffffffffffffffffffffffffffffffffffffffffff1916145b806105e257506105e182611642565b5b9050919050565b6060600080546105f890613a64565b80601f016020809104026020016040519081016040528092919081815260200182805461062490613a64565b80156106715780601f1061064657610100808354040283529160200191610671565b820191906000526020600020905b81548152906001019060200180831161065457829003601f168201915b5050505050905090565b6000610686826116ac565b6106c5576040517f08c379a00000000000000000000000000000000000000000000000000000000081526004016106bc906136d7565b60405180910390fd5b6004600083815260200190815260200160002060009054906101000a900473ffffffffffffffffffffffffffffffffffffffff169050919050565b600061070b82610b13565b90508073ffffffffffffffffffffffffffffffffffffffff168373ffffffffffffffffffffffffffffffffffffffff16141561077c576040517f08c379a000000000000000000000000000000000000000000000000000000000815260040161077390613757565b60405180910390fd5b8073ffffffffffffffffffffffffffffffffffffffff1661079b611718565b73ffffffffffffffffffffffffffffffffffffffff1614806107ca57506107c9816107c4611718565b611400565b5b610809576040517f08c379a000000000000000000000000000000000000000000000000000000000815260040161080090613617565b60405180910390fd5b6108138383611720565b505050565b610829610823611718565b826117d9565b610868576040517f08c379a000000000000000000000000000000000000000000000000000000000815260040161085f90613777565b60405180910390fd5b6108738383836118b7565b505050565b60006108846008611b13565b60006108906008611b29565b905061089c8482611b37565b6108a68184611b55565b600960008573ffffffffffffffffffffffffffffffffffffffff1673ffffffffffffffffffffffffffffffffffffffff1681526020019081526020016000208190806001815401808255809150506001900390600052602060002001600090919091909150558091505092915050565b61093183838360405180602001604052806000815250610f97565b505050565b606060008260ff1667ffffffffffffffff81111561097d577f4e487b7100000000000000000000000000000000000000000000000000000000600052604160045260246000fd5b6040519080825280602002602001820160405280156109b657816020015b6109a3612900565b81526020019060019003908161099b5790505b5090506109c36008611b29565b841115610a05576040517f08c379a00000000000000000000000000000000000000000000000000000000081526004016109fc906135b7565b60405180910390fd5b6000808590505b8460ff1686610a1b91906138e6565b811015610af057610a2c6008611b29565b811115610a6e576040517f08c379a0000000000000000000000000000000000000000000000000000000008152600401610a65906135b7565b60405180910390fd5b6040518060400160405280828152602001610a8883610ff9565b815250838381518110610ac4577f4e487b7100000000000000000000000000000000000000000000000000000000600052603260045260246000fd5b60200260200101819052508180610ada90613ac7565b9250508080610ae890613ac7565b915050610a0c565b50819250505092915050565b6000600760149054906101000a900460ff16905090565b6000806002600084815260200190815260200160002060009054906101000a900473ffffffffffffffffffffffffffffffffffffffff169050600073ffffffffffffffffffffffffffffffffffffffff168173ffffffffffffffffffffffffffffffffffffffff161415610bbc576040517f08c379a0000000000000000000000000000000000000000000000000000000008152600401610bb390613657565b60405180910390fd5b80915050919050565b60008073ffffffffffffffffffffffffffffffffffffffff168273ffffffffffffffffffffffffffffffffffffffff161415610c36576040517f08c379a0000000000000000000000000000000000000000000000000000000008152600401610c2d90613637565b60405180910390fd5b600360008373ffffffffffffffffffffffffffffffffffffffff1673ffffffffffffffffffffffffffffffffffffffff168152602001908152602001600020549050919050565b610c85611718565b73ffffffffffffffffffffffffffffffffffffffff16610ca3610ec5565b73ffffffffffffffffffffffffffffffffffffffff1614610cf9576040517f08c379a0000000000000000000000000000000000000000000000000000000008152600401610cf0906136f7565b60405180910390fd5b610d036000611bc9565b565b610d0d611718565b73ffffffffffffffffffffffffffffffffffffffff16610d2b610ec5565b73ffffffffffffffffffffffffffffffffffffffff1614610d81576040517f08c379a0000000000000000000000000000000000000000000000000000000008152600401610d78906136f7565b60405180910390fd5b610d89611c8f565b565b600080600c60008581526020019081526020016000208054610dac90613a64565b80601f0160208091040260200160405190810160405280929190818152602001828054610dd890613a64565b8015610e255780601f10610dfa57610100808354040283529160200191610e25565b820191906000526020600020905b815481529060010190602001808311610e0857829003601f168201915b5050505050905082604051602001610e3d91906133b6565b6040516020818303038152906040528051906020012081604051602001610e6491906133b6565b6040516020818303038152906040528051906020012014610eba576040517f08c379a0000000000000000000000000000000000000000000000000000000008152600401610eb1906134b7565b60405180910390fd5b600191505092915050565b6000600760009054906101000a900473ffffffffffffffffffffffffffffffffffffffff16905090565b606060018054610efe90613a64565b80601f0160208091040260200160405190810160405280929190818152602001828054610f2a90613a64565b8015610f775780601f10610f4c57610100808354040283529160200191610f77565b820191906000526020600020905b815481529060010190602001808311610f5a57829003601f168201915b5050505050905090565b610f93610f8c611718565b8383611d32565b5050565b610fa8610fa2611718565b836117d9565b610fe7576040517f08c379a0000000000000000000000000000000000000000000000000000000008152600401610fde90613777565b60405180910390fd5b610ff384848484611e9f565b50505050565b6060611004826116ac565b611043576040517f08c379a000000000000000000000000000000000000000000000000000000000815260040161103a906136b7565b60405180910390fd5b600060066000848152602001908152602001600020805461106390613a64565b80601f016020809104026020016040519081016040528092919081815260200182805461108f90613a64565b80156110dc5780601f106110b1576101008083540402835291602001916110dc565b820191906000526020600020905b8154815290600101906020018083116110bf57829003601f168201915b5050505050905060006110ed611efb565b9050600081511415611103578192505050611146565b6000825111156111385780826040516020016111209291906133cd565b60405160208183030381529060405292505050611146565b61114184611f12565b925050505b919050565b611153611718565b73ffffffffffffffffffffffffffffffffffffffff16611171610ec5565b73ffffffffffffffffffffffffffffffffffffffff16146111c7576040517f08c379a00000000000000000000000000000000000000000000000000000000081526004016111be906136f7565b60405180910390fd5b6111db81600a611fb990919063ffffffff16565b6111f5576111f381600a61161290919063ffffffff16565b505b50565b600061120a611205611718565b611fe9565b611249576040517f08c379a000000000000000000000000000000000000000000000000000000000815260040161124090613797565b60405180910390fd5b6112536008611b29565b841115611295576040517f08c379a000000000000000000000000000000000000000000000000000000000815260040161128c906135b7565b60405180910390fd5b82600c600086815260200190815260200160002090805190602001906112bc92919061291a565b50600d8490806001815401808255809150506001900390600052602060002001600090919091909150556112f08483611b55565b600190509392505050565b611303611718565b73ffffffffffffffffffffffffffffffffffffffff16611321610ec5565b73ffffffffffffffffffffffffffffffffffffffff1614611377576040517f08c379a000000000000000000000000000000000000000000000000000000000815260040161136e906136f7565b60405180910390fd5b61138b81600a611fb990919063ffffffff16565b61139457600080fd5b6113a881600a61200690919063ffffffff16565b5050565b60006113b6610afc565b15806113fb57506113c5610ec5565b73ffffffffffffffffffffffffffffffffffffffff166113e3611718565b73ffffffffffffffffffffffffffffffffffffffff16145b905090565b6000600560008473ffffffffffffffffffffffffffffffffffffffff1673ffffffffffffffffffffffffffffffffffffffff16815260200190815260200160002060008373ffffffffffffffffffffffffffffffffffffffff1673ffffffffffffffffffffffffffffffffffffffff16815260200190815260200160002060009054906101000a900460ff16905092915050565b61149c611718565b73ffffffffffffffffffffffffffffffffffffffff166114ba610ec5565b73ffffffffffffffffffffffffffffffffffffffff1614611510576040517f08c379a0000000000000000000000000000000000000000000000000000000008152600401611507906136f7565b60405180910390fd5b600073ffffffffffffffffffffffffffffffffffffffff168173ffffffffffffffffffffffffffffffffffffffff161415611580576040517f08c379a000000000000000000000000000000000000000000000000000000000815260040161157790613517565b60405180910390fd5b61158981611bc9565b50565b611594611718565b73ffffffffffffffffffffffffffffffffffffffff166115b2610ec5565b73ffffffffffffffffffffffffffffffffffffffff1614611608576040517f08c379a00000000000000000000000000000000000000000000000000000000081526004016115ff906136f7565b60405180910390fd5b611610612036565b565b600061163a836000018373ffffffffffffffffffffffffffffffffffffffff1660001b6120d8565b905092915050565b60007f01ffc9a7000000000000000000000000000000000000000000000000000000007bffffffffffffffffffffffffffffffffffffffffffffffffffffffff1916827bffffffffffffffffffffffffffffffffffffffffffffffffffffffff1916149050919050565b60008073ffffffffffffffffffffffffffffffffffffffff166002600084815260200190815260200160002060009054906101000a900473ffffffffffffffffffffffffffffffffffffffff1673ffffffffffffffffffffffffffffffffffffffff1614159050919050565b600033905090565b816004600083815260200190815260200160002060006101000a81548173ffffffffffffffffffffffffffffffffffffffff021916908373ffffffffffffffffffffffffffffffffffffffff160217905550808273ffffffffffffffffffffffffffffffffffffffff1661179383610b13565b73ffffffffffffffffffffffffffffffffffffffff167f8c5be1e5ebec7d5bd14f71427d1e84f3dd0314c0f7b2291e5b200ac8c7c3b92560405160405180910390a45050565b60006117e4826116ac565b611823576040517f08c379a000000000000000000000000000000000000000000000000000000000815260040161181a90613597565b60405180910390fd5b600061182e83610b13565b90508073ffffffffffffffffffffffffffffffffffffffff168473ffffffffffffffffffffffffffffffffffffffff16148061189d57508373ffffffffffffffffffffffffffffffffffffffff166118858461067b565b73ffffffffffffffffffffffffffffffffffffffff16145b806118ae57506118ad8185611400565b5b91505092915050565b8273ffffffffffffffffffffffffffffffffffffffff166118d782610b13565b73ffffffffffffffffffffffffffffffffffffffff161461192d576040517f08c379a000000000000000000000000000000000000000000000000000000000815260040161192490613717565b60405180910390fd5b600073ffffffffffffffffffffffffffffffffffffffff168273ffffffffffffffffffffffffffffffffffffffff16141561199d576040517f08c379a000000000000000000000000000000000000000000000000000000000815260040161199490613557565b60405180910390fd5b6119a8838383612148565b6119b3600082611720565b6001600360008573ffffffffffffffffffffffffffffffffffffffff1673ffffffffffffffffffffffffffffffffffffffff1681526020019081526020016000206000828254611a03919061396d565b925050819055506001600360008473ffffffffffffffffffffffffffffffffffffffff1673ffffffffffffffffffffffffffffffffffffffff1681526020019081526020016000206000828254611a5a91906138e6565b92505081905550816002600083815260200190815260200160002060006101000a81548173ffffffffffffffffffffffffffffffffffffffff021916908373ffffffffffffffffffffffffffffffffffffffff160217905550808273ffffffffffffffffffffffffffffffffffffffff168473ffffffffffffffffffffffffffffffffffffffff167fddf252ad1be2c89b69c2b068fc378daa952ba7f163c4a11628f55a4df523b3ef60405160405180910390a4505050565b6001816000016000828254019250508190555050565b600081600001549050919050565b611b518282604051806020016040528060008152506121d7565b5050565b611b5e826116ac565b611b9d576040517f08c379a0000000000000000000000000000000000000000000000000000000008152600401611b9490613677565b60405180910390fd5b80600660008481526020019081526020016000209080519060200190611bc492919061291a565b505050565b6000600760009054906101000a900473ffffffffffffffffffffffffffffffffffffffff16905081600760006101000a81548173ffffffffffffffffffffffffffffffffffffffff021916908373ffffffffffffffffffffffffffffffffffffffff1602179055508173ffffffffffffffffffffffffffffffffffffffff168173ffffffffffffffffffffffffffffffffffffffff167f8be0079c531659141344cd1fd0a4f28419497f9722a3daafe3b4186f6b6457e060405160405180910390a35050565b611c97610afc565b15611cd7576040517f08c379a0000000000000000000000000000000000000000000000000000000008152600401611cce906135d7565b60405180910390fd5b6001600760146101000a81548160ff0219169083151502179055507f62e78cea01bee320cd4e420270b5ea74000d11b0c9f74754ebdbfc544b05a258611d1b611718565b604051611d2891906133f1565b60405180910390a1565b8173ffffffffffffffffffffffffffffffffffffffff168373ffffffffffffffffffffffffffffffffffffffff161415611da1576040517f08c379a0000000000000000000000000000000000000000000000000000000008152600401611d9890613577565b60405180910390fd5b80600560008573ffffffffffffffffffffffffffffffffffffffff1673ffffffffffffffffffffffffffffffffffffffff16815260200190815260200160002060008473ffffffffffffffffffffffffffffffffffffffff1673ffffffffffffffffffffffffffffffffffffffff16815260200190815260200160002060006101000a81548160ff0219169083151502179055508173ffffffffffffffffffffffffffffffffffffffff168373ffffffffffffffffffffffffffffffffffffffff167f17307eab39ab6107e8899845ad3d59bd9653f200f220920489ca2b5937696c3183604051611e92919061347a565b60405180910390a3505050565b611eaa8484846118b7565b611eb684848484612232565b611ef5576040517f08c379a0000000000000000000000000000000000000000000000000000000008152600401611eec906134f7565b60405180910390fd5b50505050565b606060405180602001604052806000815250905090565b6060611f1d826116ac565b611f5c576040517f08c379a0000000000000000000000000000000000000000000000000000000008152600401611f5390613737565b60405180910390fd5b6000611f66611efb565b90506000815111611f865760405180602001604052806000815250611fb1565b80611f90846123c9565b604051602001611fa19291906133cd565b6040516020818303038152906040525b915050919050565b6000611fe1836000018373ffffffffffffffffffffffffffffffffffffffff1660001b612576565b905092915050565b6000611fff82600a611fb990919063ffffffff16565b9050919050565b600061202e836000018373ffffffffffffffffffffffffffffffffffffffff1660001b612599565b905092915050565b61203e610afc565b61207d576040517f08c379a0000000000000000000000000000000000000000000000000000000008152600401612074906134d7565b60405180910390fd5b6000600760146101000a81548160ff0219169083151502179055507f5db9ee0a495bf2e6ff9c91a7834c1ba4fdd244a5e8aa4e537bd38aeae4b073aa6120c1611718565b6040516120ce91906133f1565b60405180910390a1565b60006120e48383612576565b61213d578260000182908060018154018082558091505060019003906000526020600020016000909190919091505582600001805490508360010160008481526020019081526020016000208190555060019050612142565b600090505b92915050565b612150610afc565b156121d25761215d610ec5565b73ffffffffffffffffffffffffffffffffffffffff1661217b611718565b73ffffffffffffffffffffffffffffffffffffffff16146121d1576040517f08c379a00000000000000000000000000000000000000000000000000000000081526004016121c8906135f7565b60405180910390fd5b5b505050565b6121e1838361271f565b6121ee6000848484612232565b61222d576040517f08c379a0000000000000000000000000000000000000000000000000000000008152600401612224906134f7565b60405180910390fd5b505050565b60006122538473ffffffffffffffffffffffffffffffffffffffff166128ed565b156123bc578373ffffffffffffffffffffffffffffffffffffffff1663150b7a0261227c611718565b8786866040518563ffffffff1660e01b815260040161229e949392919061340c565b602060405180830381600087803b1580156122b857600080fd5b505af19250505080156122e957506040513d601f19601f820116820180604052508101906122e69190612d2f565b60015b61236c573d8060008114612319576040519150601f19603f3d011682016040523d82523d6000602084013e61231e565b606091505b50600081511415612364576040517f08c379a000000000000000000000000000000000000000000000000000000000815260040161235b906134f7565b60405180910390fd5b805181602001fd5b63150b7a0260e01b7bffffffffffffffffffffffffffffffffffffffffffffffffffffffff1916817bffffffffffffffffffffffffffffffffffffffffffffffffffffffff1916149150506123c1565b600190505b949350505050565b60606000821415612411576040518060400160405280600181526020017f30000000000000000000000000000000000000000000000000000000000000008152509050612571565b600082905060005b6000821461244357808061242c90613ac7565b915050600a8261243c919061393c565b9150612419565b60008167ffffffffffffffff811115612485577f4e487b7100000000000000000000000000000000000000000000000000000000600052604160045260246000fd5b6040519080825280601f01601f1916602001820160405280156124b75781602001600182028036833780820191505090505b5090505b6000851461256a576001826124d0919061396d565b9150600a856124df9190613b10565b60306124eb91906138e6565b60f81b818381518110612527577f4e487b7100000000000000000000000000000000000000000000000000000000600052603260045260246000fd5b60200101907effffffffffffffffffffffffffffffffffffffffffffffffffffffffffffff1916908160001a905350600a85612563919061393c565b94506124bb565b8093505050505b919050565b600080836001016000848152602001908152602001600020541415905092915050565b600080836001016000848152602001908152602001600020549050600081146127135760006001826125cb919061396d565b90506000600186600001805490506125e3919061396d565b905081811461269e57600086600001828154811061262a577f4e487b7100000000000000000000000000000000000000000000000000000000600052603260045260246000fd5b9060005260206000200154905080876000018481548110612674577f4e487b7100000000000000000000000000000000000000000000000000000000600052603260045260246000fd5b90600052602060002001819055508387600101600083815260200190815260200160002081905550505b856000018054806126d8577f4e487b7100000000000000000000000000000000000000000000000000000000600052603160045260246000fd5b600190038181906000526020600020016000905590558560010160008681526020019081526020016000206000905560019350505050612719565b60009150505b92915050565b600073ffffffffffffffffffffffffffffffffffffffff168273ffffffffffffffffffffffffffffffffffffffff16141561278f576040517f08c379a000000000000000000000000000000000000000000000000000000000815260040161278690613697565b60405180910390fd5b612798816116ac565b156127d8576040517f08c379a00000000000000000000000000000000000000000000000000000000081526004016127cf90613537565b60405180910390fd5b6127e460008383612148565b6001600360008473ffffffffffffffffffffffffffffffffffffffff1673ffffffffffffffffffffffffffffffffffffffff168152602001908152602001600020600082825461283491906138e6565b92505081905550816002600083815260200190815260200160002060006101000a81548173ffffffffffffffffffffffffffffffffffffffff021916908373ffffffffffffffffffffffffffffffffffffffff160217905550808273ffffffffffffffffffffffffffffffffffffffff16600073ffffffffffffffffffffffffffffffffffffffff167fddf252ad1be2c89b69c2b068fc378daa952ba7f163c4a11628f55a4df523b3ef60405160405180910390a45050565b600080823b905060008111915050919050565b604051806040016040528060008152602001606081525090565b82805461292690613a64565b90600052602060002090601f016020900481019282612948576000855561298f565b82601f1061296157805160ff191683800117855561298f565b8280016001018555821561298f579182015b8281111561298e578251825591602001919060010190612973565b5b50905061299c91906129a0565b5090565b5b808211156129b95760008160009055506001016129a1565b5090565b60006129d06129cb846137f7565b6137d2565b9050828152602081018484840111156129e857600080fd5b6129f3848285613a22565b509392505050565b6000612a0e612a0984613828565b6137d2565b905082815260208101848484011115612a2657600080fd5b612a31848285613a22565b509392505050565b600081359050612a4881614220565b92915050565b600081359050612a5d81614237565b92915050565b600081359050612a728161424e565b92915050565b600081519050612a878161424e565b92915050565b600082601f830112612a9e57600080fd5b8135612aae8482602086016129bd565b91505092915050565b600082601f830112612ac857600080fd5b8135612ad88482602086016129fb565b91505092915050565b600081359050612af081614265565b92915050565b600081359050612b058161427c565b92915050565b600060208284031215612b1d57600080fd5b6000612b2b84828501612a39565b91505092915050565b60008060408385031215612b4757600080fd5b6000612b5585828601612a39565b9250506020612b6685828601612a39565b9150509250929050565b600080600060608486031215612b8557600080fd5b6000612b9386828701612a39565b9350506020612ba486828701612a39565b9250506040612bb586828701612ae1565b9150509250925092565b60008060008060808587031215612bd557600080fd5b6000612be387828801612a39565b9450506020612bf487828801612a39565b9350506040612c0587828801612ae1565b925050606085013567ffffffffffffffff811115612c2257600080fd5b612c2e87828801612a8d565b91505092959194509250565b60008060408385031215612c4d57600080fd5b6000612c5b85828601612a39565b9250506020612c6c85828601612a4e565b9150509250929050565b60008060408385031215612c8957600080fd5b6000612c9785828601612a39565b925050602083013567ffffffffffffffff811115612cb457600080fd5b612cc085828601612ab7565b9150509250929050565b60008060408385031215612cdd57600080fd5b6000612ceb85828601612a39565b9250506020612cfc85828601612ae1565b9150509250929050565b600060208284031215612d1857600080fd5b6000612d2684828501612a63565b91505092915050565b600060208284031215612d4157600080fd5b6000612d4f84828501612a78565b91505092915050565b600060208284031215612d6a57600080fd5b6000612d7884828501612ae1565b91505092915050565b60008060408385031215612d9457600080fd5b6000612da285828601612ae1565b925050602083013567ffffffffffffffff811115612dbf57600080fd5b612dcb85828601612ab7565b9150509250929050565b600080600060608486031215612dea57600080fd5b6000612df886828701612ae1565b935050602084013567ffffffffffffffff811115612e1557600080fd5b612e2186828701612ab7565b925050604084013567ffffffffffffffff811115612e3e57600080fd5b612e4a86828701612ab7565b9150509250925092565b60008060408385031215612e6757600080fd5b6000612e7585828601612ae1565b9250506020612e8685828601612af6565b9150509250929050565b6000612e9c838361335b565b905092915050565b612ead816139a1565b82525050565b6000612ebe82613869565b612ec88185613897565b935083602082028501612eda85613859565b8060005b85811015612f165784840389528151612ef78582612e90565b9450612f028361388a565b925060208a01995050600181019050612ede565b50829750879550505050505092915050565b612f31816139b3565b82525050565b6000612f4282613874565b612f4c81856138a8565b9350612f5c818560208601613a31565b612f6581613bfd565b840191505092915050565b6000612f7b8261387f565b612f8581856138b9565b9350612f95818560208601613a31565b612f9e81613bfd565b840191505092915050565b6000612fb48261387f565b612fbe81856138ca565b9350612fce818560208601613a31565b612fd781613bfd565b840191505092915050565b6000612fed8261387f565b612ff781856138db565b9350613007818560208601613a31565b80840191505092915050565b6000613020600b836138ca565b915061302b82613c0e565b602082019050919050565b60006130436014836138ca565b915061304e82613c37565b602082019050919050565b60006130666032836138ca565b915061307182613c60565b604082019050919050565b60006130896026836138ca565b915061309482613caf565b604082019050919050565b60006130ac601c836138ca565b91506130b782613cfe565b602082019050919050565b60006130cf6024836138ca565b91506130da82613d27565b604082019050919050565b60006130f26019836138ca565b91506130fd82613d76565b602082019050919050565b6000613115602c836138ca565b915061312082613d9f565b604082019050919050565b6000613138600f836138ca565b915061314382613dee565b602082019050919050565b600061315b6010836138ca565b915061316682613e17565b602082019050919050565b600061317e602f836138ca565b915061318982613e40565b604082019050919050565b60006131a16038836138ca565b91506131ac82613e8f565b604082019050919050565b60006131c4602a836138ca565b91506131cf82613ede565b604082019050919050565b60006131e76029836138ca565b91506131f282613f2d565b604082019050919050565b600061320a602e836138ca565b915061321582613f7c565b604082019050919050565b600061322d6020836138ca565b915061323882613fcb565b602082019050919050565b60006132506031836138ca565b915061325b82613ff4565b604082019050919050565b6000613273602c836138ca565b915061327e82614043565b604082019050919050565b60006132966020836138ca565b91506132a182614092565b602082019050919050565b60006132b96029836138ca565b91506132c4826140bb565b604082019050919050565b60006132dc602f836138ca565b91506132e78261410a565b604082019050919050565b60006132ff6021836138ca565b915061330a82614159565b604082019050919050565b60006133226031836138ca565b915061332d826141a8565b604082019050919050565b60006133456012836138ca565b9150613350826141f7565b602082019050919050565b60006040830160008301516133736000860182613398565b506020830151848203602086015261338b8282612f70565b9150508091505092915050565b6133a181613a0b565b82525050565b6133b081613a0b565b82525050565b60006133c28284612fe2565b915081905092915050565b60006133d98285612fe2565b91506133e58284612fe2565b91508190509392505050565b60006020820190506134066000830184612ea4565b92915050565b60006080820190506134216000830187612ea4565b61342e6020830186612ea4565b61343b60408301856133a7565b818103606083015261344d8184612f37565b905095945050505050565b600060208201905081810360008301526134728184612eb3565b905092915050565b600060208201905061348f6000830184612f28565b92915050565b600060208201905081810360008301526134af8184612fa9565b905092915050565b600060208201905081810360008301526134d081613013565b9050919050565b600060208201905081810360008301526134f081613036565b9050919050565b6000602082019050818103600083015261351081613059565b9050919050565b600060208201905081810360008301526135308161307c565b9050919050565b600060208201905081810360008301526135508161309f565b9050919050565b60006020820190508181036000830152613570816130c2565b9050919050565b60006020820190508181036000830152613590816130e5565b9050919050565b600060208201905081810360008301526135b081613108565b9050919050565b600060208201905081810360008301526135d08161312b565b9050919050565b600060208201905081810360008301526135f08161314e565b9050919050565b6000602082019050818103600083015261361081613171565b9050919050565b6000602082019050818103600083015261363081613194565b9050919050565b60006020820190508181036000830152613650816131b7565b9050919050565b60006020820190508181036000830152613670816131da565b9050919050565b60006020820190508181036000830152613690816131fd565b9050919050565b600060208201905081810360008301526136b081613220565b9050919050565b600060208201905081810360008301526136d081613243565b9050919050565b600060208201905081810360008301526136f081613266565b9050919050565b6000602082019050818103600083015261371081613289565b9050919050565b60006020820190508181036000830152613730816132ac565b9050919050565b60006020820190508181036000830152613750816132cf565b9050919050565b60006020820190508181036000830152613770816132f2565b9050919050565b6000602082019050818103600083015261379081613315565b9050919050565b600060208201905081810360008301526137b081613338565b9050919050565b60006020820190506137cc60008301846133a7565b92915050565b60006137dc6137ed565b90506137e88282613a96565b919050565b6000604051905090565b600067ffffffffffffffff82111561381257613811613bce565b5b61381b82613bfd565b9050602081019050919050565b600067ffffffffffffffff82111561384357613842613bce565b5b61384c82613bfd565b9050602081019050919050565b6000819050602082019050919050565b600081519050919050565b600081519050919050565b600081519050919050565b6000602082019050919050565b600082825260208201905092915050565b600082825260208201905092915050565b600082825260208201905092915050565b600082825260208201905092915050565b600081905092915050565b60006138f182613a0b565b91506138fc83613a0b565b9250827fffffffffffffffffffffffffffffffffffffffffffffffffffffffffffffffff0382111561393157613930613b41565b5b828201905092915050565b600061394782613a0b565b915061395283613a0b565b92508261396257613961613b70565b5b828204905092915050565b600061397882613a0b565b915061398383613a0b565b92508282101561399657613995613b41565b5b828203905092915050565b60006139ac826139eb565b9050919050565b60008115159050919050565b60007fffffffff0000000000000000000000000000000000000000000000000000000082169050919050565b600073ffffffffffffffffffffffffffffffffffffffff82169050919050565b6000819050919050565b600060ff82169050919050565b82818337600083830152505050565b60005b83811015613a4f578082015181840152602081019050613a34565b83811115613a5e576000848401525b50505050565b60006002820490506001821680613a7c57607f821691505b60208210811415613a9057613a8f613b9f565b5b50919050565b613a9f82613bfd565b810181811067ffffffffffffffff82111715613abe57613abd613bce565b5b80604052505050565b6000613ad282613a0b565b91507fffffffffffffffffffffffffffffffffffffffffffffffffffffffffffffffff821415613b0557613b04613b41565b5b600182019050919050565b6000613b1b82613a0b565b9150613b2683613a0b565b925082613b3657613b35613b70565b5b828206905092915050565b7f4e487b7100000000000000000000000000000000000000000000000000000000600052601160045260246000fd5b7f4e487b7100000000000000000000000000000000000000000000000000000000600052601260045260246000fd5b7f4e487b7100000000000000000000000000000000000000000000000000000000600052602260045260246000fd5b7f4e487b7100000000000000000000000000000000000000000000000000000000600052604160045260246000fd5b6000601f19601f8301169050919050565b7f496e76616c696420646f63000000000000000000000000000000000000000000600082015250565b7f5061757361626c653a206e6f7420706175736564000000000000000000000000600082015250565b7f4552433732313a207472616e7366657220746f206e6f6e20455243373231526560008201527f63656976657220696d706c656d656e7465720000000000000000000000000000602082015250565b7f4f776e61626c653a206e6577206f776e657220697320746865207a65726f206160008201527f6464726573730000000000000000000000000000000000000000000000000000602082015250565b7f4552433732313a20746f6b656e20616c7265616479206d696e74656400000000600082015250565b7f4552433732313a207472616e7366657220746f20746865207a65726f2061646460008201527f7265737300000000000000000000000000000000000000000000000000000000602082015250565b7f4552433732313a20617070726f766520746f2063616c6c657200000000000000600082015250565b7f4552433732313a206f70657261746f7220717565727920666f72206e6f6e657860008201527f697374656e7420746f6b656e0000000000000000000000000000000000000000602082015250565b7f4e6f7420612076616c6964206e66740000000000000000000000000000000000600082015250565b7f5061757361626c653a2070617573656400000000000000000000000000000000600082015250565b7f4f6e6c7920746865204f776e65722063616e205472616e73666572206f72204d60008201527f696e7420756e74696c2070617573650000000000000000000000000000000000602082015250565b7f4552433732313a20617070726f76652063616c6c6572206973206e6f74206f7760008201527f6e6572206e6f7220617070726f76656420666f7220616c6c0000000000000000602082015250565b7f4552433732313a2062616c616e636520717565727920666f7220746865207a6560008201527f726f206164647265737300000000000000000000000000000000000000000000602082015250565b7f4552433732313a206f776e657220717565727920666f72206e6f6e657869737460008201527f656e7420746f6b656e0000000000000000000000000000000000000000000000602082015250565b7f45524337323155524953746f726167653a2055524920736574206f66206e6f6e60008201527f6578697374656e7420746f6b656e000000000000000000000000000000000000602082015250565b7f4552433732313a206d696e7420746f20746865207a65726f2061646472657373600082015250565b7f45524337323155524953746f726167653a2055524920717565727920666f722060008201527f6e6f6e6578697374656e7420746f6b656e000000000000000000000000000000602082015250565b7f4552433732313a20617070726f76656420717565727920666f72206e6f6e657860008201527f697374656e7420746f6b656e0000000000000000000000000000000000000000602082015250565b7f4f776e61626c653a2063616c6c6572206973206e6f7420746865206f776e6572600082015250565b7f4552433732313a207472616e73666572206f6620746f6b656e2074686174206960008201527f73206e6f74206f776e0000000000000000000000000000000000000000000000602082015250565b7f4552433732314d657461646174613a2055524920717565727920666f72206e6f60008201527f6e6578697374656e7420746f6b656e0000000000000000000000000000000000602082015250565b7f4552433732313a20617070726f76616c20746f2063757272656e74206f776e6560008201527f7200000000000000000000000000000000000000000000000000000000000000602082015250565b7f4552433732313a207472616e736665722063616c6c6572206973206e6f74206f60008201527f776e6572206e6f7220617070726f766564000000000000000000000000000000602082015250565b7f4e6f742061206c6567616c206d656d6265720000000000000000000000000000600082015250565b614229816139a1565b811461423457600080fd5b50565b614240816139b3565b811461424b57600080fd5b50565b614257816139bf565b811461426257600080fd5b50565b61426e81613a0b565b811461427957600080fd5b50565b61428581613a15565b811461429057600080fd5b5056fea2646970667358221220c470f77fbb970fcb16f66636e6a4182629556bc93ffd9e5f18151bdb0e15b8e964736f6c63430008040033",
  "linkReferences": {},
  "deployedLinkReferences": {}
}