{
  "_format": "hh-sol-artifact-1",
  "contractName": "BondNft",
  "sourceName": "contracts/BondNft.sol",
  "abi": [
    {
      "inputs": [
        {
          "internalType": "string",
          "name": "name_",
          "type": "string"
        },
        {
          "internalType": "string",
          "name": "symbol_",
          "type": "string"
        }
      ],
      "stateMutability": "nonpayable",
      "type": "constructor"
    },
    {
      "anonymous": false,
      "inputs": [
        {
          "indexed": true,
          "internalType": "address",
          "name": "owner",
          "type": "address"
        },
        {
          "indexed": true,
          "internalType": "address",
          "name": "approved",
          "type": "address"
        },
        {
          "indexed": true,
          "internalType": "uint256",
          "name": "tokenId",
          "type": "uint256"
        }
      ],
      "name": "Approval",
      "type": "event"
    },
    {
      "anonymous": false,
      "inputs": [
        {
          "indexed": true,
          "internalType": "address",
          "name": "owner",
          "type": "address"
        },
        {
          "indexed": true,
          "internalType": "address",
          "name": "operator",
          "type": "address"
        },
        {
          "indexed": false,
          "internalType": "bool",
          "name": "approved",
          "type": "bool"
        }
      ],
      "name": "ApprovalForAll",
      "type": "event"
    },
    {
      "anonymous": false,
      "inputs": [
        {
          "indexed": true,
          "internalType": "address",
          "name": "previousOwner",
          "type": "address"
        },
        {
          "indexed": true,
          "internalType": "address",
          "name": "newOwner",
          "type": "address"
        }
      ],
      "name": "OwnershipTransferred",
      "type": "event"
    },
    {
      "anonymous": false,
      "inputs": [
        {
          "indexed": false,
          "internalType": "address",
          "name": "account",
          "type": "address"
        }
      ],
      "name": "Paused",
      "type": "event"
    },
    {
      "anonymous": false,
      "inputs": [
        {
          "indexed": true,
          "internalType": "address",
          "name": "from",
          "type": "address"
        },
        {
          "indexed": true,
          "internalType": "address",
          "name": "to",
          "type": "address"
        },
        {
          "indexed": true,
          "internalType": "uint256",
          "name": "tokenId",
          "type": "uint256"
        }
      ],
      "name": "Transfer",
      "type": "event"
    },
    {
      "anonymous": false,
      "inputs": [
        {
          "indexed": false,
          "internalType": "address",
          "name": "account",
          "type": "address"
        }
      ],
      "name": "Unpaused",
      "type": "event"
    },
    {
      "inputs": [
        {
          "internalType": "address",
          "name": "legalMember_",
          "type": "address"
        }
      ],
      "name": "addLegalRole",
      "outputs": [],
      "stateMutability": "nonpayable",
      "type": "function"
    },
    {
      "inputs": [
        {
          "internalType": "address",
          "name": "to",
          "type": "address"
        },
        {
          "internalType": "uint256",
          "name": "tokenId",
          "type": "uint256"
        }
      ],
      "name": "approve",
      "outputs": [],
      "stateMutability": "nonpayable",
      "type": "function"
    },
    {
      "inputs": [
        {
          "internalType": "address",
          "name": "owner",
          "type": "address"
        }
      ],
      "name": "balanceOf",
      "outputs": [
        {
          "internalType": "uint256",
          "name": "",
          "type": "uint256"
        }
      ],
      "stateMutability": "view",
      "type": "function"
    },
    {
      "inputs": [],
      "name": "canTransfer",
      "outputs": [
        {
          "internalType": "bool",
          "name": "_status",
          "type": "bool"
        }
      ],
      "stateMutability": "view",
      "type": "function"
    },
    {
      "inputs": [
        {
          "internalType": "uint256",
          "name": "start_",
          "type": "uint256"
        },
        {
          "internalType": "uint8",
          "name": "bondCount_",
          "type": "uint8"
        }
      ],
      "name": "getAllBonds",
      "outputs": [
        {
          "components": [
            {
              "internalType": "uint256",
              "name": "bondId",
              "type": "uint256"
            },
            {
              "internalType": "string",
              "name": "cid",
              "type": "string"
            }
          ],
          "internalType": "struct bondDetails[]",
          "name": "",
          "type": "tuple[]"
        }
      ],
      "stateMutability": "view",
      "type": "function"
    },
    {
      "inputs": [
        {
          "internalType": "uint256",
          "name": "tokenId",
          "type": "uint256"
        }
      ],
      "name": "getApproved",
      "outputs": [
        {
          "internalType": "address",
          "name": "",
          "type": "address"
        }
      ],
      "stateMutability": "view",
      "type": "function"
    },
    {
      "inputs": [
        {
          "internalType": "address",
          "name": "owner",
          "type": "address"
        },
        {
          "internalType": "address",
          "name": "operator",
          "type": "address"
        }
      ],
      "name": "isApprovedForAll",
      "outputs": [
        {
          "internalType": "bool",
          "name": "",
          "type": "bool"
        }
      ],
      "stateMutability": "view",
      "type": "function"
    },
    {
      "inputs": [
        {
          "internalType": "address",
          "name": "to_",
          "type": "address"
        },
        {
          "internalType": "string",
          "name": "storageUri_",
          "type": "string"
        }
      ],
      "name": "mintABond",
      "outputs": [
        {
          "internalType": "uint256",
          "name": "",
          "type": "uint256"
        }
      ],
      "stateMutability": "nonpayable",
      "type": "function"
    },
    {
      "inputs": [],
      "name": "name",
      "outputs": [
        {
          "internalType": "string",
          "name": "",
          "type": "string"
        }
      ],
      "stateMutability": "view",
      "type": "function"
    },
    {
      "inputs": [],
      "name": "owner",
      "outputs": [
        {
          "internalType": "address",
          "name": "",
          "type": "address"
        }
      ],
      "stateMutability": "view",
      "type": "function"
    },
    {
      "inputs": [
        {
          "internalType": "uint256",
          "name": "tokenId",
          "type": "uint256"
        }
      ],
      "name": "ownerOf",
      "outputs": [
        {
          "internalType": "address",
          "name": "",
          "type": "address"
        }
      ],
      "stateMutability": "view",
      "type": "function"
    },
    {
      "inputs": [],
      "name": "pause",
      "outputs": [],
      "stateMutability": "nonpayable",
      "type": "function"
    },
    {
      "inputs": [],
      "name": "paused",
      "outputs": [
        {
          "internalType": "bool",
          "name": "",
          "type": "bool"
        }
      ],
      "stateMutability": "view",
      "type": "function"
    },
    {
      "inputs": [
        {
          "internalType": "address",
          "name": "legalMember_",
          "type": "address"
        }
      ],
      "name": "removeLegalRole",
      "outputs": [],
      "stateMutability": "nonpayable",
      "type": "function"
    },
    {
      "inputs": [],
      "name": "renounceOwnership",
      "outputs": [],
      "stateMutability": "nonpayable",
      "type": "function"
    },
    {
      "inputs": [
        {
          "internalType": "address",
          "name": "from",
          "type": "address"
        },
        {
          "internalType": "address",
          "name": "to",
          "type": "address"
        },
        {
          "internalType": "uint256",
          "name": "tokenId",
          "type": "uint256"
        }
      ],
      "name": "safeTransferFrom",
      "outputs": [],
      "stateMutability": "nonpayable",
      "type": "function"
    },
    {
      "inputs": [
        {
          "internalType": "address",
          "name": "from",
          "type": "address"
        },
        {
          "internalType": "address",
          "name": "to",
          "type": "address"
        },
        {
          "internalType": "uint256",
          "name": "tokenId",
          "type": "uint256"
        },
        {
          "internalType": "bytes",
          "name": "_data",
          "type": "bytes"
        }
      ],
      "name": "safeTransferFrom",
      "outputs": [],
      "stateMutability": "nonpayable",
      "type": "function"
    },
    {
      "inputs": [
        {
          "internalType": "address",
          "name": "operator",
          "type": "address"
        },
        {
          "internalType": "bool",
          "name": "approved",
          "type": "bool"
        }
      ],
      "name": "setApprovalForAll",
      "outputs": [],
      "stateMutability": "nonpayable",
      "type": "function"
    },
    {
      "inputs": [
        {
          "internalType": "bytes4",
          "name": "interfaceId",
          "type": "bytes4"
        }
      ],
      "name": "supportsInterface",
      "outputs": [
        {
          "internalType": "bool",
          "name": "",
          "type": "bool"
        }
      ],
      "stateMutability": "view",
      "type": "function"
    },
    {
      "inputs": [],
      "name": "symbol",
      "outputs": [
        {
          "internalType": "string",
          "name": "",
          "type": "string"
        }
      ],
      "stateMutability": "view",
      "type": "function"
    },
    {
      "inputs": [
        {
          "internalType": "uint256",
          "name": "tokenId",
          "type": "uint256"
        }
      ],
      "name": "tokenURI",
      "outputs": [
        {
          "internalType": "string",
          "name": "",
          "type": "string"
        }
      ],
      "stateMutability": "view",
      "type": "function"
    },
    {
      "inputs": [
        {
          "internalType": "address",
          "name": "from",
          "type": "address"
        },
        {
          "internalType": "address",
          "name": "to",
          "type": "address"
        },
        {
          "internalType": "uint256",
          "name": "tokenId",
          "type": "uint256"
        }
      ],
      "name": "transferFrom",
      "outputs": [],
      "stateMutability": "nonpayable",
      "type": "function"
    },
    {
      "inputs": [
        {
          "internalType": "address",
          "name": "newOwner",
          "type": "address"
        }
      ],
      "name": "transferOwnership",
      "outputs": [],
      "stateMutability": "nonpayable",
      "type": "function"
    },
    {
      "inputs": [],
      "name": "unPause",
      "outputs": [],
      "stateMutability": "nonpayable",
      "type": "function"
    },
    {
      "inputs": [
        {
          "internalType": "uint256",
          "name": "id_",
          "type": "uint256"
        },
        {
          "internalType": "string",
          "name": "hashedDoc_",
          "type": "string"
        },
        {
          "internalType": "string",
          "name": "storageUri_",
          "type": "string"
        }
      ],
      "name": "updateABond",
      "outputs": [
        {
          "internalType": "bool",
          "name": "",
          "type": "bool"
        }
      ],
      "stateMutability": "nonpayable",
      "type": "function"
    },
    {
      "inputs": [
        {
          "internalType": "uint256",
          "name": "id_",
          "type": "uint256"
        },
        {
          "internalType": "string",
          "name": "hashedDoc_",
          "type": "string"
        }
      ],
      "name": "verifyBond",
      "outputs": [
        {
          "internalType": "bool",
          "name": "",
          "type": "bool"
        }
      ],
      "stateMutability": "view",
      "type": "function"
    }
  ],
  "bytecode": "0x60806040523480156200001157600080fd5b5060405162004877380380620048778339818101604052810190620000379190620003a0565b81818160009080519060200190620000519291906200027e565b5080600190805190602001906200006a9291906200027e565b5050506200008d62000081620000db60201b60201c565b620000e360201b60201c565b6000600760146101000a81548160ff021916908315150217905550620000d2620000bc620000db60201b60201c565b600a620001a960201b6200162d1790919060201c565b50505062000583565b600033905090565b6000600760009054906101000a900473ffffffffffffffffffffffffffffffffffffffff16905081600760006101000a81548173ffffffffffffffffffffffffffffffffffffffff021916908373ffffffffffffffffffffffffffffffffffffffff1602179055508173ffffffffffffffffffffffffffffffffffffffff168173ffffffffffffffffffffffffffffffffffffffff167f8be0079c531659141344cd1fd0a4f28419497f9722a3daafe3b4186f6b6457e060405160405180910390a35050565b6000620001d9836000018373ffffffffffffffffffffffffffffffffffffffff1660001b620001e160201b60201c565b905092915050565b6000620001f583836200025b60201b60201c565b6200025057826000018290806001815401808255809150506001900390600052602060002001600090919091909150558260000180549050836001016000848152602001908152602001600020819055506001905062000255565b600090505b92915050565b600080836001016000848152602001908152602001600020541415905092915050565b8280546200028c90620004a8565b90600052602060002090601f016020900481019282620002b05760008555620002fc565b82601f10620002cb57805160ff1916838001178555620002fc565b82800160010185558215620002fc579182015b82811115620002fb578251825591602001919060010190620002de565b5b5090506200030b91906200030f565b5090565b5b808211156200032a57600081600090555060010162000310565b5090565b6000620003456200033f846200043c565b62000413565b9050828152602081018484840111156200035e57600080fd5b6200036b84828562000472565b509392505050565b600082601f8301126200038557600080fd5b8151620003978482602086016200032e565b91505092915050565b60008060408385031215620003b457600080fd5b600083015167ffffffffffffffff811115620003cf57600080fd5b620003dd8582860162000373565b925050602083015167ffffffffffffffff811115620003fb57600080fd5b620004098582860162000373565b9150509250929050565b60006200041f62000432565b90506200042d8282620004de565b919050565b6000604051905090565b600067ffffffffffffffff8211156200045a576200045962000543565b5b620004658262000572565b9050602081019050919050565b60005b838110156200049257808201518184015260208101905062000475565b83811115620004a2576000848401525b50505050565b60006002820490506001821680620004c157607f821691505b60208210811415620004d857620004d762000514565b5b50919050565b620004e98262000572565b810181811067ffffffffffffffff821117156200050b576200050a62000543565b5b80604052505050565b7f4e487b7100000000000000000000000000000000000000000000000000000000600052602260045260246000fd5b7f4e487b7100000000000000000000000000000000000000000000000000000000600052604160045260246000fd5b6000601f19601f8301169050919050565b6142e480620005936000396000f3fe608060405234801561001057600080fd5b506004361061018e5760003560e01c806384b7c769116100de578063cd7046d011610097578063df68c1a211610071578063df68c1a214610493578063e985e9c5146104b1578063f2fde38b146104e1578063f7b188a5146104fd5761018e565b8063cd7046d01461042b578063d76d98e214610447578063dc9b31d1146104775761018e565b806384b7c769146103575780638da5cb5b1461038757806395d89b41146103a5578063a22cb465146103c3578063b88d4fde146103df578063c87b56dd146103fb5761018e565b806342842e0e1161014b5780636352211e116101255780636352211e146102e357806370a0823114610313578063715018a6146103435780638456cb591461034d5761018e565b806342842e0e14610279578063450c9bc6146102955780635c975abb146102c55761018e565b806301ffc9a71461019357806306fdde03146101c3578063081812fc146101e1578063095ea7b31461021157806323b872dd1461022d578063252d3f9114610249575b600080fd5b6101ad60048036038101906101a89190612d21565b610507565b6040516101ba9190613495565b60405180910390f35b6101cb6105e9565b6040516101d891906134b0565b60405180910390f35b6101fb60048036038101906101f69190612d73565b61067b565b604051610208919061340c565b60405180910390f35b61022b60048036038101906102269190612ce5565b610700565b005b61024760048036038101906102429190612b8b565b610818565b005b610263600480360381019061025e9190612c91565b610878565b60405161027091906137d2565b60405180910390f35b610293600480360381019061028e9190612b8b565b610916565b005b6102af60048036038101906102aa9190612e6f565b610936565b6040516102bc9190613473565b60405180910390f35b6102cd610afc565b6040516102da9190613495565b60405180910390f35b6102fd60048036038101906102f89190612d73565b610b13565b60405161030a919061340c565b60405180910390f35b61032d60048036038101906103289190612b26565b610bc5565b60405161033a91906137d2565b60405180910390f35b61034b610c7d565b005b610355610d05565b005b610371600480360381019061036c9190612d9c565b610d8b565b60405161037e9190613495565b60405180910390f35b61038f610ec5565b60405161039c919061340c565b60405180910390f35b6103ad610eef565b6040516103ba91906134b0565b60405180910390f35b6103dd60048036038101906103d89190612c55565b610f81565b005b6103f960048036038101906103f49190612bda565b610f97565b005b61041560048036038101906104109190612d73565b610ff9565b60405161042291906134b0565b60405180910390f35b61044560048036038101906104409190612b26565b61114b565b005b610461600480360381019061045c9190612df0565b6111f8565b60405161046e9190613495565b60405180910390f35b610491600480360381019061048c9190612b26565b611316565b005b61049b6113c7565b6040516104a89190613495565b60405180910390f35b6104cb60048036038101906104c69190612b4f565b61141b565b6040516104d89190613495565b60405180910390f35b6104fb60048036038101906104f69190612b26565b6114af565b005b6105056115a7565b005b60007f80ac58cd000000000000000000000000000000000000000000000000000000007bffffffffffffffffffffffffffffffffffffffffffffffffffffffff1916827bffffffffffffffffffffffffffffffffffffffffffffffffffffffff191614806105d257507f5b5e139f000000000000000000000000000000000000000000000000000000007bffffffffffffffffffffffffffffffffffffffffffffffffffffffff1916827bffffffffffffffffffffffffffffffffffffffffffffffffffffffff1916145b806105e257506105e18261165d565b5b9050919050565b6060600080546105f890613a7f565b80601f016020809104026020016040519081016040528092919081815260200182805461062490613a7f565b80156106715780601f1061064657610100808354040283529160200191610671565b820191906000526020600020905b81548152906001019060200180831161065457829003601f168201915b5050505050905090565b6000610686826116c7565b6106c5576040517f08c379a00000000000000000000000000000000000000000000000000000000081526004016106bc906136f2565b60405180910390fd5b6004600083815260200190815260200160002060009054906101000a900473ffffffffffffffffffffffffffffffffffffffff169050919050565b600061070b82610b13565b90508073ffffffffffffffffffffffffffffffffffffffff168373ffffffffffffffffffffffffffffffffffffffff16141561077c576040517f08c379a000000000000000000000000000000000000000000000000000000000815260040161077390613772565b60405180910390fd5b8073ffffffffffffffffffffffffffffffffffffffff1661079b611733565b73ffffffffffffffffffffffffffffffffffffffff1614806107ca57506107c9816107c4611733565b61141b565b5b610809576040517f08c379a000000000000000000000000000000000000000000000000000000000815260040161080090613632565b60405180910390fd5b610813838361173b565b505050565b610829610823611733565b826117f4565b610868576040517f08c379a000000000000000000000000000000000000000000000000000000000815260040161085f90613792565b60405180910390fd5b6108738383836118d2565b505050565b60006108846008611b2e565b60006108906008611b44565b905061089c8482611b52565b6108a68184611b70565b600960008573ffffffffffffffffffffffffffffffffffffffff1673ffffffffffffffffffffffffffffffffffffffff1681526020019081526020016000208190806001815401808255809150506001900390600052602060002001600090919091909150558091505092915050565b61093183838360405180602001604052806000815250610f97565b505050565b606060008260ff1667ffffffffffffffff81111561097d577f4e487b7100000000000000000000000000000000000000000000000000000000600052604160045260246000fd5b6040519080825280602002602001820160405280156109b657816020015b6109a361291b565b81526020019060019003908161099b5790505b5090506109c36008611b44565b841115610a05576040517f08c379a00000000000000000000000000000000000000000000000000000000081526004016109fc906135d2565b60405180910390fd5b6000808590505b8460ff1686610a1b9190613901565b811015610af057610a2c6008611b44565b811115610a6e576040517f08c379a0000000000000000000000000000000000000000000000000000000008152600401610a65906135d2565b60405180910390fd5b6040518060400160405280828152602001610a8883610ff9565b815250838381518110610ac4577f4e487b7100000000000000000000000000000000000000000000000000000000600052603260045260246000fd5b60200260200101819052508180610ada90613ae2565b9250508080610ae890613ae2565b915050610a0c565b50819250505092915050565b6000600760149054906101000a900460ff16905090565b6000806002600084815260200190815260200160002060009054906101000a900473ffffffffffffffffffffffffffffffffffffffff169050600073ffffffffffffffffffffffffffffffffffffffff168173ffffffffffffffffffffffffffffffffffffffff161415610bbc576040517f08c379a0000000000000000000000000000000000000000000000000000000008152600401610bb390613672565b60405180910390fd5b80915050919050565b60008073ffffffffffffffffffffffffffffffffffffffff168273ffffffffffffffffffffffffffffffffffffffff161415610c36576040517f08c379a0000000000000000000000000000000000000000000000000000000008152600401610c2d90613652565b60405180910390fd5b600360008373ffffffffffffffffffffffffffffffffffffffff1673ffffffffffffffffffffffffffffffffffffffff168152602001908152602001600020549050919050565b610c85611733565b73ffffffffffffffffffffffffffffffffffffffff16610ca3610ec5565b73ffffffffffffffffffffffffffffffffffffffff1614610cf9576040517f08c379a0000000000000000000000000000000000000000000000000000000008152600401610cf090613712565b60405180910390fd5b610d036000611be4565b565b610d0d611733565b73ffffffffffffffffffffffffffffffffffffffff16610d2b610ec5565b73ffffffffffffffffffffffffffffffffffffffff1614610d81576040517f08c379a0000000000000000000000000000000000000000000000000000000008152600401610d7890613712565b60405180910390fd5b610d89611caa565b565b600080600c60008581526020019081526020016000208054610dac90613a7f565b80601f0160208091040260200160405190810160405280929190818152602001828054610dd890613a7f565b8015610e255780601f10610dfa57610100808354040283529160200191610e25565b820191906000526020600020905b815481529060010190602001808311610e0857829003601f168201915b5050505050905082604051602001610e3d91906133d1565b6040516020818303038152906040528051906020012081604051602001610e6491906133d1565b6040516020818303038152906040528051906020012014610eba576040517f08c379a0000000000000000000000000000000000000000000000000000000008152600401610eb1906134d2565b60405180910390fd5b600191505092915050565b6000600760009054906101000a900473ffffffffffffffffffffffffffffffffffffffff16905090565b606060018054610efe90613a7f565b80601f0160208091040260200160405190810160405280929190818152602001828054610f2a90613a7f565b8015610f775780601f10610f4c57610100808354040283529160200191610f77565b820191906000526020600020905b815481529060010190602001808311610f5a57829003601f168201915b5050505050905090565b610f93610f8c611733565b8383611d4d565b5050565b610fa8610fa2611733565b836117f4565b610fe7576040517f08c379a0000000000000000000000000000000000000000000000000000000008152600401610fde90613792565b60405180910390fd5b610ff384848484611eba565b50505050565b6060611004826116c7565b611043576040517f08c379a000000000000000000000000000000000000000000000000000000000815260040161103a906136d2565b60405180910390fd5b600060066000848152602001908152602001600020805461106390613a7f565b80601f016020809104026020016040519081016040528092919081815260200182805461108f90613a7f565b80156110dc5780601f106110b1576101008083540402835291602001916110dc565b820191906000526020600020905b8154815290600101906020018083116110bf57829003601f168201915b5050505050905060006110ed611f16565b9050600081511415611103578192505050611146565b6000825111156111385780826040516020016111209291906133e8565b60405160208183030381529060405292505050611146565b61114184611f2d565b925050505b919050565b611153611733565b73ffffffffffffffffffffffffffffffffffffffff16611171610ec5565b73ffffffffffffffffffffffffffffffffffffffff16146111c7576040517f08c379a00000000000000000000000000000000000000000000000000000000081526004016111be90613712565b60405180910390fd5b6111db81600a611fd490919063ffffffff16565b6111f5576111f381600a61162d90919063ffffffff16565b505b50565b600061120a611205611733565b612004565b611249576040517f08c379a0000000000000000000000000000000000000000000000000000000008152600401611240906137b2565b60405180910390fd5b6112536008611b44565b8410611294576040517f08c379a000000000000000000000000000000000000000000000000000000000815260040161128b906135d2565b60405180910390fd5b82600c600086815260200190815260200160002090805190602001906112bb929190612935565b50600d84815481106112f6577f4e487b7100000000000000000000000000000000000000000000000000000000600052603260045260246000fd5b906000526020600020505061130b8483611b70565b600190509392505050565b61131e611733565b73ffffffffffffffffffffffffffffffffffffffff1661133c610ec5565b73ffffffffffffffffffffffffffffffffffffffff1614611392576040517f08c379a000000000000000000000000000000000000000000000000000000000815260040161138990613712565b60405180910390fd5b6113a681600a611fd490919063ffffffff16565b6113af57600080fd5b6113c381600a61202190919063ffffffff16565b5050565b60006113d1610afc565b158061141657506113e0610ec5565b73ffffffffffffffffffffffffffffffffffffffff166113fe611733565b73ffffffffffffffffffffffffffffffffffffffff16145b905090565b6000600560008473ffffffffffffffffffffffffffffffffffffffff1673ffffffffffffffffffffffffffffffffffffffff16815260200190815260200160002060008373ffffffffffffffffffffffffffffffffffffffff1673ffffffffffffffffffffffffffffffffffffffff16815260200190815260200160002060009054906101000a900460ff16905092915050565b6114b7611733565b73ffffffffffffffffffffffffffffffffffffffff166114d5610ec5565b73ffffffffffffffffffffffffffffffffffffffff161461152b576040517f08c379a000000000000000000000000000000000000000000000000000000000815260040161152290613712565b60405180910390fd5b600073ffffffffffffffffffffffffffffffffffffffff168173ffffffffffffffffffffffffffffffffffffffff16141561159b576040517f08c379a000000000000000000000000000000000000000000000000000000000815260040161159290613532565b60405180910390fd5b6115a481611be4565b50565b6115af611733565b73ffffffffffffffffffffffffffffffffffffffff166115cd610ec5565b73ffffffffffffffffffffffffffffffffffffffff1614611623576040517f08c379a000000000000000000000000000000000000000000000000000000000815260040161161a90613712565b60405180910390fd5b61162b612051565b565b6000611655836000018373ffffffffffffffffffffffffffffffffffffffff1660001b6120f3565b905092915050565b60007f01ffc9a7000000000000000000000000000000000000000000000000000000007bffffffffffffffffffffffffffffffffffffffffffffffffffffffff1916827bffffffffffffffffffffffffffffffffffffffffffffffffffffffff1916149050919050565b60008073ffffffffffffffffffffffffffffffffffffffff166002600084815260200190815260200160002060009054906101000a900473ffffffffffffffffffffffffffffffffffffffff1673ffffffffffffffffffffffffffffffffffffffff1614159050919050565b600033905090565b816004600083815260200190815260200160002060006101000a81548173ffffffffffffffffffffffffffffffffffffffff021916908373ffffffffffffffffffffffffffffffffffffffff160217905550808273ffffffffffffffffffffffffffffffffffffffff166117ae83610b13565b73ffffffffffffffffffffffffffffffffffffffff167f8c5be1e5ebec7d5bd14f71427d1e84f3dd0314c0f7b2291e5b200ac8c7c3b92560405160405180910390a45050565b60006117ff826116c7565b61183e576040517f08c379a0000000000000000000000000000000000000000000000000000000008152600401611835906135b2565b60405180910390fd5b600061184983610b13565b90508073ffffffffffffffffffffffffffffffffffffffff168473ffffffffffffffffffffffffffffffffffffffff1614806118b857508373ffffffffffffffffffffffffffffffffffffffff166118a08461067b565b73ffffffffffffffffffffffffffffffffffffffff16145b806118c957506118c8818561141b565b5b91505092915050565b8273ffffffffffffffffffffffffffffffffffffffff166118f282610b13565b73ffffffffffffffffffffffffffffffffffffffff1614611948576040517f08c379a000000000000000000000000000000000000000000000000000000000815260040161193f90613732565b60405180910390fd5b600073ffffffffffffffffffffffffffffffffffffffff168273ffffffffffffffffffffffffffffffffffffffff1614156119b8576040517f08c379a00000000000000000000000000000000000000000000000000000000081526004016119af90613572565b60405180910390fd5b6119c3838383612163565b6119ce60008261173b565b6001600360008573ffffffffffffffffffffffffffffffffffffffff1673ffffffffffffffffffffffffffffffffffffffff1681526020019081526020016000206000828254611a1e9190613988565b925050819055506001600360008473ffffffffffffffffffffffffffffffffffffffff1673ffffffffffffffffffffffffffffffffffffffff1681526020019081526020016000206000828254611a759190613901565b92505081905550816002600083815260200190815260200160002060006101000a81548173ffffffffffffffffffffffffffffffffffffffff021916908373ffffffffffffffffffffffffffffffffffffffff160217905550808273ffffffffffffffffffffffffffffffffffffffff168473ffffffffffffffffffffffffffffffffffffffff167fddf252ad1be2c89b69c2b068fc378daa952ba7f163c4a11628f55a4df523b3ef60405160405180910390a4505050565b6001816000016000828254019250508190555050565b600081600001549050919050565b611b6c8282604051806020016040528060008152506121f2565b5050565b611b79826116c7565b611bb8576040517f08c379a0000000000000000000000000000000000000000000000000000000008152600401611baf90613692565b60405180910390fd5b80600660008481526020019081526020016000209080519060200190611bdf929190612935565b505050565b6000600760009054906101000a900473ffffffffffffffffffffffffffffffffffffffff16905081600760006101000a81548173ffffffffffffffffffffffffffffffffffffffff021916908373ffffffffffffffffffffffffffffffffffffffff1602179055508173ffffffffffffffffffffffffffffffffffffffff168173ffffffffffffffffffffffffffffffffffffffff167f8be0079c531659141344cd1fd0a4f28419497f9722a3daafe3b4186f6b6457e060405160405180910390a35050565b611cb2610afc565b15611cf2576040517f08c379a0000000000000000000000000000000000000000000000000000000008152600401611ce9906135f2565b60405180910390fd5b6001600760146101000a81548160ff0219169083151502179055507f62e78cea01bee320cd4e420270b5ea74000d11b0c9f74754ebdbfc544b05a258611d36611733565b604051611d43919061340c565b60405180910390a1565b8173ffffffffffffffffffffffffffffffffffffffff168373ffffffffffffffffffffffffffffffffffffffff161415611dbc576040517f08c379a0000000000000000000000000000000000000000000000000000000008152600401611db390613592565b60405180910390fd5b80600560008573ffffffffffffffffffffffffffffffffffffffff1673ffffffffffffffffffffffffffffffffffffffff16815260200190815260200160002060008473ffffffffffffffffffffffffffffffffffffffff1673ffffffffffffffffffffffffffffffffffffffff16815260200190815260200160002060006101000a81548160ff0219169083151502179055508173ffffffffffffffffffffffffffffffffffffffff168373ffffffffffffffffffffffffffffffffffffffff167f17307eab39ab6107e8899845ad3d59bd9653f200f220920489ca2b5937696c3183604051611ead9190613495565b60405180910390a3505050565b611ec58484846118d2565b611ed18484848461224d565b611f10576040517f08c379a0000000000000000000000000000000000000000000000000000000008152600401611f0790613512565b60405180910390fd5b50505050565b606060405180602001604052806000815250905090565b6060611f38826116c7565b611f77576040517f08c379a0000000000000000000000000000000000000000000000000000000008152600401611f6e90613752565b60405180910390fd5b6000611f81611f16565b90506000815111611fa15760405180602001604052806000815250611fcc565b80611fab846123e4565b604051602001611fbc9291906133e8565b6040516020818303038152906040525b915050919050565b6000611ffc836000018373ffffffffffffffffffffffffffffffffffffffff1660001b612591565b905092915050565b600061201a82600a611fd490919063ffffffff16565b9050919050565b6000612049836000018373ffffffffffffffffffffffffffffffffffffffff1660001b6125b4565b905092915050565b612059610afc565b612098576040517f08c379a000000000000000000000000000000000000000000000000000000000815260040161208f906134f2565b60405180910390fd5b6000600760146101000a81548160ff0219169083151502179055507f5db9ee0a495bf2e6ff9c91a7834c1ba4fdd244a5e8aa4e537bd38aeae4b073aa6120dc611733565b6040516120e9919061340c565b60405180910390a1565b60006120ff8383612591565b61215857826000018290806001815401808255809150506001900390600052602060002001600090919091909150558260000180549050836001016000848152602001908152602001600020819055506001905061215d565b600090505b92915050565b61216b610afc565b156121ed57612178610ec5565b73ffffffffffffffffffffffffffffffffffffffff16612196611733565b73ffffffffffffffffffffffffffffffffffffffff16146121ec576040517f08c379a00000000000000000000000000000000000000000000000000000000081526004016121e390613612565b60405180910390fd5b5b505050565b6121fc838361273a565b612209600084848461224d565b612248576040517f08c379a000000000000000000000000000000000000000000000000000000000815260040161223f90613512565b60405180910390fd5b505050565b600061226e8473ffffffffffffffffffffffffffffffffffffffff16612908565b156123d7578373ffffffffffffffffffffffffffffffffffffffff1663150b7a02612297611733565b8786866040518563ffffffff1660e01b81526004016122b99493929190613427565b602060405180830381600087803b1580156122d357600080fd5b505af192505050801561230457506040513d601f19601f820116820180604052508101906123019190612d4a565b60015b612387573d8060008114612334576040519150601f19603f3d011682016040523d82523d6000602084013e612339565b606091505b5060008151141561237f576040517f08c379a000000000000000000000000000000000000000000000000000000000815260040161237690613512565b60405180910390fd5b805181602001fd5b63150b7a0260e01b7bffffffffffffffffffffffffffffffffffffffffffffffffffffffff1916817bffffffffffffffffffffffffffffffffffffffffffffffffffffffff1916149150506123dc565b600190505b949350505050565b6060600082141561242c576040518060400160405280600181526020017f3000000000000000000000000000000000000000000000000000000000000000815250905061258c565b600082905060005b6000821461245e57808061244790613ae2565b915050600a826124579190613957565b9150612434565b60008167ffffffffffffffff8111156124a0577f4e487b7100000000000000000000000000000000000000000000000000000000600052604160045260246000fd5b6040519080825280601f01601f1916602001820160405280156124d25781602001600182028036833780820191505090505b5090505b60008514612585576001826124eb9190613988565b9150600a856124fa9190613b2b565b60306125069190613901565b60f81b818381518110612542577f4e487b7100000000000000000000000000000000000000000000000000000000600052603260045260246000fd5b60200101907effffffffffffffffffffffffffffffffffffffffffffffffffffffffffffff1916908160001a905350600a8561257e9190613957565b94506124d6565b8093505050505b919050565b600080836001016000848152602001908152602001600020541415905092915050565b6000808360010160008481526020019081526020016000205490506000811461272e5760006001826125e69190613988565b90506000600186600001805490506125fe9190613988565b90508181146126b9576000866000018281548110612645577f4e487b7100000000000000000000000000000000000000000000000000000000600052603260045260246000fd5b906000526020600020015490508087600001848154811061268f577f4e487b7100000000000000000000000000000000000000000000000000000000600052603260045260246000fd5b90600052602060002001819055508387600101600083815260200190815260200160002081905550505b856000018054806126f3577f4e487b7100000000000000000000000000000000000000000000000000000000600052603160045260246000fd5b600190038181906000526020600020016000905590558560010160008681526020019081526020016000206000905560019350505050612734565b60009150505b92915050565b600073ffffffffffffffffffffffffffffffffffffffff168273ffffffffffffffffffffffffffffffffffffffff1614156127aa576040517f08c379a00000000000000000000000000000000000000000000000000000000081526004016127a1906136b2565b60405180910390fd5b6127b3816116c7565b156127f3576040517f08c379a00000000000000000000000000000000000000000000000000000000081526004016127ea90613552565b60405180910390fd5b6127ff60008383612163565b6001600360008473ffffffffffffffffffffffffffffffffffffffff1673ffffffffffffffffffffffffffffffffffffffff168152602001908152602001600020600082825461284f9190613901565b92505081905550816002600083815260200190815260200160002060006101000a81548173ffffffffffffffffffffffffffffffffffffffff021916908373ffffffffffffffffffffffffffffffffffffffff160217905550808273ffffffffffffffffffffffffffffffffffffffff16600073ffffffffffffffffffffffffffffffffffffffff167fddf252ad1be2c89b69c2b068fc378daa952ba7f163c4a11628f55a4df523b3ef60405160405180910390a45050565b600080823b905060008111915050919050565b604051806040016040528060008152602001606081525090565b82805461294190613a7f565b90600052602060002090601f01602090048101928261296357600085556129aa565b82601f1061297c57805160ff19168380011785556129aa565b828001600101855582156129aa579182015b828111156129a957825182559160200191906001019061298e565b5b5090506129b791906129bb565b5090565b5b808211156129d45760008160009055506001016129bc565b5090565b60006129eb6129e684613812565b6137ed565b905082815260208101848484011115612a0357600080fd5b612a0e848285613a3d565b509392505050565b6000612a29612a2484613843565b6137ed565b905082815260208101848484011115612a4157600080fd5b612a4c848285613a3d565b509392505050565b600081359050612a638161423b565b92915050565b600081359050612a7881614252565b92915050565b600081359050612a8d81614269565b92915050565b600081519050612aa281614269565b92915050565b600082601f830112612ab957600080fd5b8135612ac98482602086016129d8565b91505092915050565b600082601f830112612ae357600080fd5b8135612af3848260208601612a16565b91505092915050565b600081359050612b0b81614280565b92915050565b600081359050612b2081614297565b92915050565b600060208284031215612b3857600080fd5b6000612b4684828501612a54565b91505092915050565b60008060408385031215612b6257600080fd5b6000612b7085828601612a54565b9250506020612b8185828601612a54565b9150509250929050565b600080600060608486031215612ba057600080fd5b6000612bae86828701612a54565b9350506020612bbf86828701612a54565b9250506040612bd086828701612afc565b9150509250925092565b60008060008060808587031215612bf057600080fd5b6000612bfe87828801612a54565b9450506020612c0f87828801612a54565b9350506040612c2087828801612afc565b925050606085013567ffffffffffffffff811115612c3d57600080fd5b612c4987828801612aa8565b91505092959194509250565b60008060408385031215612c6857600080fd5b6000612c7685828601612a54565b9250506020612c8785828601612a69565b9150509250929050565b60008060408385031215612ca457600080fd5b6000612cb285828601612a54565b925050602083013567ffffffffffffffff811115612ccf57600080fd5b612cdb85828601612ad2565b9150509250929050565b60008060408385031215612cf857600080fd5b6000612d0685828601612a54565b9250506020612d1785828601612afc565b9150509250929050565b600060208284031215612d3357600080fd5b6000612d4184828501612a7e565b91505092915050565b600060208284031215612d5c57600080fd5b6000612d6a84828501612a93565b91505092915050565b600060208284031215612d8557600080fd5b6000612d9384828501612afc565b91505092915050565b60008060408385031215612daf57600080fd5b6000612dbd85828601612afc565b925050602083013567ffffffffffffffff811115612dda57600080fd5b612de685828601612ad2565b9150509250929050565b600080600060608486031215612e0557600080fd5b6000612e1386828701612afc565b935050602084013567ffffffffffffffff811115612e3057600080fd5b612e3c86828701612ad2565b925050604084013567ffffffffffffffff811115612e5957600080fd5b612e6586828701612ad2565b9150509250925092565b60008060408385031215612e8257600080fd5b6000612e9085828601612afc565b9250506020612ea185828601612b11565b9150509250929050565b6000612eb78383613376565b905092915050565b612ec8816139bc565b82525050565b6000612ed982613884565b612ee381856138b2565b935083602082028501612ef585613874565b8060005b85811015612f315784840389528151612f128582612eab565b9450612f1d836138a5565b925060208a01995050600181019050612ef9565b50829750879550505050505092915050565b612f4c816139ce565b82525050565b6000612f5d8261388f565b612f6781856138c3565b9350612f77818560208601613a4c565b612f8081613c18565b840191505092915050565b6000612f968261389a565b612fa081856138d4565b9350612fb0818560208601613a4c565b612fb981613c18565b840191505092915050565b6000612fcf8261389a565b612fd981856138e5565b9350612fe9818560208601613a4c565b612ff281613c18565b840191505092915050565b60006130088261389a565b61301281856138f6565b9350613022818560208601613a4c565b80840191505092915050565b600061303b600b836138e5565b915061304682613c29565b602082019050919050565b600061305e6014836138e5565b915061306982613c52565b602082019050919050565b60006130816032836138e5565b915061308c82613c7b565b604082019050919050565b60006130a46026836138e5565b91506130af82613cca565b604082019050919050565b60006130c7601c836138e5565b91506130d282613d19565b602082019050919050565b60006130ea6024836138e5565b91506130f582613d42565b604082019050919050565b600061310d6019836138e5565b915061311882613d91565b602082019050919050565b6000613130602c836138e5565b915061313b82613dba565b604082019050919050565b6000613153600f836138e5565b915061315e82613e09565b602082019050919050565b60006131766010836138e5565b915061318182613e32565b602082019050919050565b6000613199602f836138e5565b91506131a482613e5b565b604082019050919050565b60006131bc6038836138e5565b91506131c782613eaa565b604082019050919050565b60006131df602a836138e5565b91506131ea82613ef9565b604082019050919050565b60006132026029836138e5565b915061320d82613f48565b604082019050919050565b6000613225602e836138e5565b915061323082613f97565b604082019050919050565b60006132486020836138e5565b915061325382613fe6565b602082019050919050565b600061326b6031836138e5565b91506132768261400f565b604082019050919050565b600061328e602c836138e5565b91506132998261405e565b604082019050919050565b60006132b16020836138e5565b91506132bc826140ad565b602082019050919050565b60006132d46029836138e5565b91506132df826140d6565b604082019050919050565b60006132f7602f836138e5565b915061330282614125565b604082019050919050565b600061331a6021836138e5565b915061332582614174565b604082019050919050565b600061333d6031836138e5565b9150613348826141c3565b604082019050919050565b60006133606012836138e5565b915061336b82614212565b602082019050919050565b600060408301600083015161338e60008601826133b3565b50602083015184820360208601526133a68282612f8b565b9150508091505092915050565b6133bc81613a26565b82525050565b6133cb81613a26565b82525050565b60006133dd8284612ffd565b915081905092915050565b60006133f48285612ffd565b91506134008284612ffd565b91508190509392505050565b60006020820190506134216000830184612ebf565b92915050565b600060808201905061343c6000830187612ebf565b6134496020830186612ebf565b61345660408301856133c2565b81810360608301526134688184612f52565b905095945050505050565b6000602082019050818103600083015261348d8184612ece565b905092915050565b60006020820190506134aa6000830184612f43565b92915050565b600060208201905081810360008301526134ca8184612fc4565b905092915050565b600060208201905081810360008301526134eb8161302e565b9050919050565b6000602082019050818103600083015261350b81613051565b9050919050565b6000602082019050818103600083015261352b81613074565b9050919050565b6000602082019050818103600083015261354b81613097565b9050919050565b6000602082019050818103600083015261356b816130ba565b9050919050565b6000602082019050818103600083015261358b816130dd565b9050919050565b600060208201905081810360008301526135ab81613100565b9050919050565b600060208201905081810360008301526135cb81613123565b9050919050565b600060208201905081810360008301526135eb81613146565b9050919050565b6000602082019050818103600083015261360b81613169565b9050919050565b6000602082019050818103600083015261362b8161318c565b9050919050565b6000602082019050818103600083015261364b816131af565b9050919050565b6000602082019050818103600083015261366b816131d2565b9050919050565b6000602082019050818103600083015261368b816131f5565b9050919050565b600060208201905081810360008301526136ab81613218565b9050919050565b600060208201905081810360008301526136cb8161323b565b9050919050565b600060208201905081810360008301526136eb8161325e565b9050919050565b6000602082019050818103600083015261370b81613281565b9050919050565b6000602082019050818103600083015261372b816132a4565b9050919050565b6000602082019050818103600083015261374b816132c7565b9050919050565b6000602082019050818103600083015261376b816132ea565b9050919050565b6000602082019050818103600083015261378b8161330d565b9050919050565b600060208201905081810360008301526137ab81613330565b9050919050565b600060208201905081810360008301526137cb81613353565b9050919050565b60006020820190506137e760008301846133c2565b92915050565b60006137f7613808565b90506138038282613ab1565b919050565b6000604051905090565b600067ffffffffffffffff82111561382d5761382c613be9565b5b61383682613c18565b9050602081019050919050565b600067ffffffffffffffff82111561385e5761385d613be9565b5b61386782613c18565b9050602081019050919050565b6000819050602082019050919050565b600081519050919050565b600081519050919050565b600081519050919050565b6000602082019050919050565b600082825260208201905092915050565b600082825260208201905092915050565b600082825260208201905092915050565b600082825260208201905092915050565b600081905092915050565b600061390c82613a26565b915061391783613a26565b9250827fffffffffffffffffffffffffffffffffffffffffffffffffffffffffffffffff0382111561394c5761394b613b5c565b5b828201905092915050565b600061396282613a26565b915061396d83613a26565b92508261397d5761397c613b8b565b5b828204905092915050565b600061399382613a26565b915061399e83613a26565b9250828210156139b1576139b0613b5c565b5b828203905092915050565b60006139c782613a06565b9050919050565b60008115159050919050565b60007fffffffff0000000000000000000000000000000000000000000000000000000082169050919050565b600073ffffffffffffffffffffffffffffffffffffffff82169050919050565b6000819050919050565b600060ff82169050919050565b82818337600083830152505050565b60005b83811015613a6a578082015181840152602081019050613a4f565b83811115613a79576000848401525b50505050565b60006002820490506001821680613a9757607f821691505b60208210811415613aab57613aaa613bba565b5b50919050565b613aba82613c18565b810181811067ffffffffffffffff82111715613ad957613ad8613be9565b5b80604052505050565b6000613aed82613a26565b91507fffffffffffffffffffffffffffffffffffffffffffffffffffffffffffffffff821415613b2057613b1f613b5c565b5b600182019050919050565b6000613b3682613a26565b9150613b4183613a26565b925082613b5157613b50613b8b565b5b828206905092915050565b7f4e487b7100000000000000000000000000000000000000000000000000000000600052601160045260246000fd5b7f4e487b7100000000000000000000000000000000000000000000000000000000600052601260045260246000fd5b7f4e487b7100000000000000000000000000000000000000000000000000000000600052602260045260246000fd5b7f4e487b7100000000000000000000000000000000000000000000000000000000600052604160045260246000fd5b6000601f19601f8301169050919050565b7f496e76616c696420646f63000000000000000000000000000000000000000000600082015250565b7f5061757361626c653a206e6f7420706175736564000000000000000000000000600082015250565b7f4552433732313a207472616e7366657220746f206e6f6e20455243373231526560008201527f63656976657220696d706c656d656e7465720000000000000000000000000000602082015250565b7f4f776e61626c653a206e6577206f776e657220697320746865207a65726f206160008201527f6464726573730000000000000000000000000000000000000000000000000000602082015250565b7f4552433732313a20746f6b656e20616c7265616479206d696e74656400000000600082015250565b7f4552433732313a207472616e7366657220746f20746865207a65726f2061646460008201527f7265737300000000000000000000000000000000000000000000000000000000602082015250565b7f4552433732313a20617070726f766520746f2063616c6c657200000000000000600082015250565b7f4552433732313a206f70657261746f7220717565727920666f72206e6f6e657860008201527f697374656e7420746f6b656e0000000000000000000000000000000000000000602082015250565b7f4e6f7420612076616c6964206e66740000000000000000000000000000000000600082015250565b7f5061757361626c653a2070617573656400000000000000000000000000000000600082015250565b7f4f6e6c7920746865204f776e65722063616e205472616e73666572206f72204d60008201527f696e7420756e74696c2070617573650000000000000000000000000000000000602082015250565b7f4552433732313a20617070726f76652063616c6c6572206973206e6f74206f7760008201527f6e6572206e6f7220617070726f76656420666f7220616c6c0000000000000000602082015250565b7f4552433732313a2062616c616e636520717565727920666f7220746865207a6560008201527f726f206164647265737300000000000000000000000000000000000000000000602082015250565b7f4552433732313a206f776e657220717565727920666f72206e6f6e657869737460008201527f656e7420746f6b656e0000000000000000000000000000000000000000000000602082015250565b7f45524337323155524953746f726167653a2055524920736574206f66206e6f6e60008201527f6578697374656e7420746f6b656e000000000000000000000000000000000000602082015250565b7f4552433732313a206d696e7420746f20746865207a65726f2061646472657373600082015250565b7f45524337323155524953746f726167653a2055524920717565727920666f722060008201527f6e6f6e6578697374656e7420746f6b656e000000000000000000000000000000602082015250565b7f4552433732313a20617070726f76656420717565727920666f72206e6f6e657860008201527f697374656e7420746f6b656e0000000000000000000000000000000000000000602082015250565b7f4f776e61626c653a2063616c6c6572206973206e6f7420746865206f776e6572600082015250565b7f4552433732313a207472616e73666572206f6620746f6b656e2074686174206960008201527f73206e6f74206f776e0000000000000000000000000000000000000000000000602082015250565b7f4552433732314d657461646174613a2055524920717565727920666f72206e6f60008201527f6e6578697374656e7420746f6b656e0000000000000000000000000000000000602082015250565b7f4552433732313a20617070726f76616c20746f2063757272656e74206f776e6560008201527f7200000000000000000000000000000000000000000000000000000000000000602082015250565b7f4552433732313a207472616e736665722063616c6c6572206973206e6f74206f60008201527f776e6572206e6f7220617070726f766564000000000000000000000000000000602082015250565b7f4e6f742061206c6567616c206d656d6265720000000000000000000000000000600082015250565b614244816139bc565b811461424f57600080fd5b50565b61425b816139ce565b811461426657600080fd5b50565b614272816139da565b811461427d57600080fd5b50565b61428981613a26565b811461429457600080fd5b50565b6142a081613a30565b81146142ab57600080fd5b5056fea2646970667358221220c55c439b2202372d25f2cba3fe49a1ca06e1911e4c0c225f7ecb976a1d0f6a7464736f6c63430008040033",
  "linkReferences": {},
  "deployedLinkReferences": {}
}