{
  "_format": "hh-sol-artifact-1",
  "contractName": "Escrow",
  "sourceName": "contracts/Escrow.sol",
  "abi": [
    {
      "inputs": [
        {
          "internalType": "string",
          "name": "name_",
          "type": "string"
        },
        {
          "internalType": "address",
          "name": "bondNft_",
          "type": "address"
        },
        {
          "internalType": "address",
          "name": "fundContract_",
          "type": "address"
        }
      ],
      "stateMutability": "nonpayable",
      "type": "constructor"
    },
    {
      "anonymous": false,
      "inputs": [
        {
          "indexed": true,
          "internalType": "address",
          "name": "previousOwner",
          "type": "address"
        },
        {
          "indexed": true,
          "internalType": "address",
          "name": "newOwner",
          "type": "address"
        }
      ],
      "name": "OwnershipTransferred",
      "type": "event"
    },
    {
      "inputs": [
        {
          "internalType": "string",
          "name": "uri_",
          "type": "string"
        },
        {
          "internalType": "address",
          "name": "legalMember",
          "type": "address"
        }
      ],
      "name": "createABond",
      "outputs": [],
      "stateMutability": "payable",
      "type": "function"
    },
    {
      "inputs": [],
      "name": "name",
      "outputs": [
        {
          "internalType": "string",
          "name": "",
          "type": "string"
        }
      ],
      "stateMutability": "view",
      "type": "function"
    },
    {
      "inputs": [],
      "name": "owner",
      "outputs": [
        {
          "internalType": "address",
          "name": "",
          "type": "address"
        }
      ],
      "stateMutability": "view",
      "type": "function"
    },
    {
      "inputs": [],
      "name": "renounceOwnership",
      "outputs": [],
      "stateMutability": "nonpayable",
      "type": "function"
    },
    {
      "inputs": [
        {
          "internalType": "address",
          "name": "newOwner",
          "type": "address"
        }
      ],
      "name": "transferOwnership",
      "outputs": [],
      "stateMutability": "nonpayable",
      "type": "function"
    }
  ],
  "bytecode": "0x60806040523480156200001157600080fd5b506040516200105138038062001051833981810160405281019062000037919062000300565b620000576200004b620000fb60201b60201c565b6200010360201b60201c565b82600190805190602001906200006f929190620001c7565b5081600260006101000a81548173ffffffffffffffffffffffffffffffffffffffff021916908373ffffffffffffffffffffffffffffffffffffffff16021790555080600360006101000a81548173ffffffffffffffffffffffffffffffffffffffff021916908373ffffffffffffffffffffffffffffffffffffffff1602179055505050506200052d565b600033905090565b60008060009054906101000a900473ffffffffffffffffffffffffffffffffffffffff169050816000806101000a81548173ffffffffffffffffffffffffffffffffffffffff021916908373ffffffffffffffffffffffffffffffffffffffff1602179055508173ffffffffffffffffffffffffffffffffffffffff168173ffffffffffffffffffffffffffffffffffffffff167f8be0079c531659141344cd1fd0a4f28419497f9722a3daafe3b4186f6b6457e060405160405180910390a35050565b828054620001d59062000438565b90600052602060002090601f016020900481019282620001f9576000855562000245565b82601f106200021457805160ff191683800117855562000245565b8280016001018555821562000245579182015b828111156200024457825182559160200191906001019062000227565b5b50905062000254919062000258565b5090565b5b808211156200027357600081600090555060010162000259565b5090565b60006200028e620002888462000398565b6200036f565b905082815260208101848484011115620002a757600080fd5b620002b484828562000402565b509392505050565b600081519050620002cd8162000513565b92915050565b600082601f830112620002e557600080fd5b8151620002f784826020860162000277565b91505092915050565b6000806000606084860312156200031657600080fd5b600084015167ffffffffffffffff8111156200033157600080fd5b6200033f86828701620002d3565b93505060206200035286828701620002bc565b92505060406200036586828701620002bc565b9150509250925092565b60006200037b6200038e565b90506200038982826200046e565b919050565b6000604051905090565b600067ffffffffffffffff821115620003b657620003b5620004d3565b5b620003c18262000502565b9050602081019050919050565b6000620003db82620003e2565b9050919050565b600073ffffffffffffffffffffffffffffffffffffffff82169050919050565b60005b838110156200042257808201518184015260208101905062000405565b8381111562000432576000848401525b50505050565b600060028204905060018216806200045157607f821691505b60208210811415620004685762000467620004a4565b5b50919050565b620004798262000502565b810181811067ffffffffffffffff821117156200049b576200049a620004d3565b5b80604052505050565b7f4e487b7100000000000000000000000000000000000000000000000000000000600052602260045260246000fd5b7f4e487b7100000000000000000000000000000000000000000000000000000000600052604160045260246000fd5b6000601f19601f8301169050919050565b6200051e81620003ce565b81146200052a57600080fd5b50565b610b14806200053d6000396000f3fe60806040526004361061004a5760003560e01c806306fdde031461004f578063715018a61461007a57806382cd7354146100915780638da5cb5b146100ad578063f2fde38b146100d8575b600080fd5b34801561005b57600080fd5b50610064610101565b60405161007191906107cb565b60405180910390f35b34801561008657600080fd5b5061008f61018f565b005b6100ab60048036038101906100a69190610652565b610217565b005b3480156100b957600080fd5b506100c26103aa565b6040516100cf9190610780565b60405180910390f35b3480156100e457600080fd5b506100ff60048036038101906100fa9190610629565b6103d3565b005b6001805461010e9061093d565b80601f016020809104026020016040519081016040528092919081815260200182805461013a9061093d565b80156101875780601f1061015c57610100808354040283529160200191610187565b820191906000526020600020905b81548152906001019060200180831161016a57829003601f168201915b505050505081565b6101976104cb565b73ffffffffffffffffffffffffffffffffffffffff166101b56103aa565b73ffffffffffffffffffffffffffffffffffffffff161461020b576040517f08c379a00000000000000000000000000000000000000000000000000000000081526004016102029061080d565b60405180910390fd5b61021560006104d3565b565b67016345785d8a00003411610261576040517f08c379a00000000000000000000000000000000000000000000000000000000081526004016102589061082d565b60405180910390fd5b600260009054906101000a900473ffffffffffffffffffffffffffffffffffffffff1673ffffffffffffffffffffffffffffffffffffffff1663252d3f916102a76104cb565b846040518363ffffffff1660e01b81526004016102c592919061079b565b602060405180830381600087803b1580156102df57600080fd5b505af11580156102f3573d6000803e3d6000fd5b505050506040513d601f19601f8201168201806040525081019061031791906106a6565b50600360009054906101000a900473ffffffffffffffffffffffffffffffffffffffff1673ffffffffffffffffffffffffffffffffffffffff16635397dffa34836040518363ffffffff1660e01b81526004016103749190610780565b6000604051808303818588803b15801561038d57600080fd5b505af11580156103a1573d6000803e3d6000fd5b50505050505050565b60008060009054906101000a900473ffffffffffffffffffffffffffffffffffffffff16905090565b6103db6104cb565b73ffffffffffffffffffffffffffffffffffffffff166103f96103aa565b73ffffffffffffffffffffffffffffffffffffffff161461044f576040517f08c379a00000000000000000000000000000000000000000000000000000000081526004016104469061080d565b60405180910390fd5b600073ffffffffffffffffffffffffffffffffffffffff168173ffffffffffffffffffffffffffffffffffffffff1614156104bf576040517f08c379a00000000000000000000000000000000000000000000000000000000081526004016104b6906107ed565b60405180910390fd5b6104c8816104d3565b50565b600033905090565b60008060009054906101000a900473ffffffffffffffffffffffffffffffffffffffff169050816000806101000a81548173ffffffffffffffffffffffffffffffffffffffff021916908373ffffffffffffffffffffffffffffffffffffffff1602179055508173ffffffffffffffffffffffffffffffffffffffff168173ffffffffffffffffffffffffffffffffffffffff167f8be0079c531659141344cd1fd0a4f28419497f9722a3daafe3b4186f6b6457e060405160405180910390a35050565b60006105aa6105a584610872565b61084d565b9050828152602081018484840111156105c257600080fd5b6105cd8482856108fb565b509392505050565b6000813590506105e481610ab0565b92915050565b600082601f8301126105fb57600080fd5b813561060b848260208601610597565b91505092915050565b60008151905061062381610ac7565b92915050565b60006020828403121561063b57600080fd5b6000610649848285016105d5565b91505092915050565b6000806040838503121561066557600080fd5b600083013567ffffffffffffffff81111561067f57600080fd5b61068b858286016105ea565b925050602061069c858286016105d5565b9150509250929050565b6000602082840312156106b857600080fd5b60006106c684828501610614565b91505092915050565b6106d8816108bf565b82525050565b60006106e9826108a3565b6106f381856108ae565b935061070381856020860161090a565b61070c816109fe565b840191505092915050565b60006107246026836108ae565b915061072f82610a0f565b604082019050919050565b60006107476020836108ae565b915061075282610a5e565b602082019050919050565b600061076a6012836108ae565b915061077582610a87565b602082019050919050565b600060208201905061079560008301846106cf565b92915050565b60006040820190506107b060008301856106cf565b81810360208301526107c281846106de565b90509392505050565b600060208201905081810360008301526107e581846106de565b905092915050565b6000602082019050818103600083015261080681610717565b9050919050565b600060208201905081810360008301526108268161073a565b9050919050565b600060208201905081810360008301526108468161075d565b9050919050565b6000610857610868565b9050610863828261096f565b919050565b6000604051905090565b600067ffffffffffffffff82111561088d5761088c6109cf565b5b610896826109fe565b9050602081019050919050565b600081519050919050565b600082825260208201905092915050565b60006108ca826108d1565b9050919050565b600073ffffffffffffffffffffffffffffffffffffffff82169050919050565b6000819050919050565b82818337600083830152505050565b60005b8381101561092857808201518184015260208101905061090d565b83811115610937576000848401525b50505050565b6000600282049050600182168061095557607f821691505b60208210811415610969576109686109a0565b5b50919050565b610978826109fe565b810181811067ffffffffffffffff82111715610997576109966109cf565b5b80604052505050565b7f4e487b7100000000000000000000000000000000000000000000000000000000600052602260045260246000fd5b7f4e487b7100000000000000000000000000000000000000000000000000000000600052604160045260246000fd5b6000601f19601f8301169050919050565b7f4f776e61626c653a206e6577206f776e657220697320746865207a65726f206160008201527f6464726573730000000000000000000000000000000000000000000000000000602082015250565b7f4f776e61626c653a2063616c6c6572206973206e6f7420746865206f776e6572600082015250565b7f4572726f7220696e76616c69642066756e640000000000000000000000000000600082015250565b610ab9816108bf565b8114610ac457600080fd5b50565b610ad0816108f1565b8114610adb57600080fd5b5056fea26469706673582212204808791fdb8b828c5b99d6aba19e082c045272f473850fb96497c1c31ac733a664736f6c63430008040033",
  "linkReferences": {},
  "deployedLinkReferences": {}
}