{
  "_format": "hh-sol-artifact-1",
  "contractName": "Escrow",
  "sourceName": "contracts/Escrow.sol",
  "abi": [
    {
      "inputs": [
        {
          "internalType": "string",
          "name": "name_",
          "type": "string"
        },
        {
          "internalType": "address",
          "name": "bondNft_",
          "type": "address"
        },
        {
          "internalType": "address",
          "name": "fundContract_",
          "type": "address"
        }
      ],
      "stateMutability": "nonpayable",
      "type": "constructor"
    },
    {
      "anonymous": false,
      "inputs": [
        {
          "indexed": true,
          "internalType": "address",
          "name": "previousOwner",
          "type": "address"
        },
        {
          "indexed": true,
          "internalType": "address",
          "name": "newOwner",
          "type": "address"
        }
      ],
      "name": "OwnershipTransferred",
      "type": "event"
    },
    {
      "inputs": [
        {
          "internalType": "string",
          "name": "uri_",
          "type": "string"
        },
        {
          "internalType": "address",
          "name": "legalMember",
          "type": "address"
        }
      ],
      "name": "createABond",
      "outputs": [
        {
          "internalType": "uint256",
          "name": "",
          "type": "uint256"
        }
      ],
      "stateMutability": "payable",
      "type": "function"
    },
    {
      "inputs": [],
      "name": "name",
      "outputs": [
        {
          "internalType": "string",
          "name": "",
          "type": "string"
        }
      ],
      "stateMutability": "view",
      "type": "function"
    },
    {
      "inputs": [],
      "name": "owner",
      "outputs": [
        {
          "internalType": "address",
          "name": "",
          "type": "address"
        }
      ],
      "stateMutability": "view",
      "type": "function"
    },
    {
      "inputs": [],
      "name": "renounceOwnership",
      "outputs": [],
      "stateMutability": "nonpayable",
      "type": "function"
    },
    {
      "inputs": [
        {
          "internalType": "address",
          "name": "newOwner",
          "type": "address"
        }
      ],
      "name": "transferOwnership",
      "outputs": [],
      "stateMutability": "nonpayable",
      "type": "function"
    }
  ],
  "bytecode": "0x60806040523480156200001157600080fd5b5060405162000fe338038062000fe3833981810160405281019062000037919062000300565b620000576200004b620000fb60201b60201c565b6200010360201b60201c565b82600190805190602001906200006f929190620001c7565b5081600260006101000a81548173ffffffffffffffffffffffffffffffffffffffff021916908373ffffffffffffffffffffffffffffffffffffffff16021790555080600360006101000a81548173ffffffffffffffffffffffffffffffffffffffff021916908373ffffffffffffffffffffffffffffffffffffffff1602179055505050506200052d565b600033905090565b60008060009054906101000a900473ffffffffffffffffffffffffffffffffffffffff169050816000806101000a81548173ffffffffffffffffffffffffffffffffffffffff021916908373ffffffffffffffffffffffffffffffffffffffff1602179055508173ffffffffffffffffffffffffffffffffffffffff168173ffffffffffffffffffffffffffffffffffffffff167f8be0079c531659141344cd1fd0a4f28419497f9722a3daafe3b4186f6b6457e060405160405180910390a35050565b828054620001d59062000438565b90600052602060002090601f016020900481019282620001f9576000855562000245565b82601f106200021457805160ff191683800117855562000245565b8280016001018555821562000245579182015b828111156200024457825182559160200191906001019062000227565b5b50905062000254919062000258565b5090565b5b808211156200027357600081600090555060010162000259565b5090565b60006200028e620002888462000398565b6200036f565b905082815260208101848484011115620002a757600080fd5b620002b484828562000402565b509392505050565b600081519050620002cd8162000513565b92915050565b600082601f830112620002e557600080fd5b8151620002f784826020860162000277565b91505092915050565b6000806000606084860312156200031657600080fd5b600084015167ffffffffffffffff8111156200033157600080fd5b6200033f86828701620002d3565b93505060206200035286828701620002bc565b92505060406200036586828701620002bc565b9150509250925092565b60006200037b6200038e565b90506200038982826200046e565b919050565b6000604051905090565b600067ffffffffffffffff821115620003b657620003b5620004d3565b5b620003c18262000502565b9050602081019050919050565b6000620003db82620003e2565b9050919050565b600073ffffffffffffffffffffffffffffffffffffffff82169050919050565b60005b838110156200042257808201518184015260208101905062000405565b8381111562000432576000848401525b50505050565b600060028204905060018216806200045157607f821691505b60208210811415620004685762000467620004a4565b5b50919050565b620004798262000502565b810181811067ffffffffffffffff821117156200049b576200049a620004d3565b5b80604052505050565b7f4e487b7100000000000000000000000000000000000000000000000000000000600052602260045260246000fd5b7f4e487b7100000000000000000000000000000000000000000000000000000000600052604160045260246000fd5b6000601f19601f8301169050919050565b6200051e81620003ce565b81146200052a57600080fd5b50565b610aa6806200053d6000396000f3fe60806040526004361061004a5760003560e01c806306fdde031461004f578063715018a61461007a57806382cd7354146100915780638da5cb5b146100c1578063f2fde38b146100ec575b600080fd5b34801561005b57600080fd5b50610064610115565b604051610071919061078b565b60405180910390f35b34801561008657600080fd5b5061008f6101a3565b005b6100ab60048036038101906100a69190610626565b61022b565b6040516100b891906107ed565b60405180910390f35b3480156100cd57600080fd5b506100d661037e565b6040516100e39190610740565b60405180910390f35b3480156100f857600080fd5b50610113600480360381019061010e91906105fd565b6103a7565b005b60018054610122906108f8565b80601f016020809104026020016040519081016040528092919081815260200182805461014e906108f8565b801561019b5780601f106101705761010080835404028352916020019161019b565b820191906000526020600020905b81548152906001019060200180831161017e57829003601f168201915b505050505081565b6101ab61049f565b73ffffffffffffffffffffffffffffffffffffffff166101c961037e565b73ffffffffffffffffffffffffffffffffffffffff161461021f576040517f08c379a0000000000000000000000000000000000000000000000000000000008152600401610216906107cd565b60405180910390fd5b61022960006104a7565b565b600080600260009054906101000a900473ffffffffffffffffffffffffffffffffffffffff1673ffffffffffffffffffffffffffffffffffffffff1663252d3f9161027461049f565b866040518363ffffffff1660e01b815260040161029292919061075b565b602060405180830381600087803b1580156102ac57600080fd5b505af11580156102c0573d6000803e3d6000fd5b505050506040513d601f19601f820116820180604052508101906102e4919061067a565b9050600360009054906101000a900473ffffffffffffffffffffffffffffffffffffffff1673ffffffffffffffffffffffffffffffffffffffff16635397dffa34856040518363ffffffff1660e01b81526004016103429190610740565b6000604051808303818588803b15801561035b57600080fd5b505af115801561036f573d6000803e3d6000fd5b50505050508091505092915050565b60008060009054906101000a900473ffffffffffffffffffffffffffffffffffffffff16905090565b6103af61049f565b73ffffffffffffffffffffffffffffffffffffffff166103cd61037e565b73ffffffffffffffffffffffffffffffffffffffff1614610423576040517f08c379a000000000000000000000000000000000000000000000000000000000815260040161041a906107cd565b60405180910390fd5b600073ffffffffffffffffffffffffffffffffffffffff168173ffffffffffffffffffffffffffffffffffffffff161415610493576040517f08c379a000000000000000000000000000000000000000000000000000000000815260040161048a906107ad565b60405180910390fd5b61049c816104a7565b50565b600033905090565b60008060009054906101000a900473ffffffffffffffffffffffffffffffffffffffff169050816000806101000a81548173ffffffffffffffffffffffffffffffffffffffff021916908373ffffffffffffffffffffffffffffffffffffffff1602179055508173ffffffffffffffffffffffffffffffffffffffff168173ffffffffffffffffffffffffffffffffffffffff167f8be0079c531659141344cd1fd0a4f28419497f9722a3daafe3b4186f6b6457e060405160405180910390a35050565b600061057e6105798461082d565b610808565b90508281526020810184848401111561059657600080fd5b6105a18482856108b6565b509392505050565b6000813590506105b881610a42565b92915050565b600082601f8301126105cf57600080fd5b81356105df84826020860161056b565b91505092915050565b6000815190506105f781610a59565b92915050565b60006020828403121561060f57600080fd5b600061061d848285016105a9565b91505092915050565b6000806040838503121561063957600080fd5b600083013567ffffffffffffffff81111561065357600080fd5b61065f858286016105be565b9250506020610670858286016105a9565b9150509250929050565b60006020828403121561068c57600080fd5b600061069a848285016105e8565b91505092915050565b6106ac8161087a565b82525050565b60006106bd8261085e565b6106c78185610869565b93506106d78185602086016108c5565b6106e0816109b9565b840191505092915050565b60006106f8602683610869565b9150610703826109ca565b604082019050919050565b600061071b602083610869565b915061072682610a19565b602082019050919050565b61073a816108ac565b82525050565b600060208201905061075560008301846106a3565b92915050565b600060408201905061077060008301856106a3565b818103602083015261078281846106b2565b90509392505050565b600060208201905081810360008301526107a581846106b2565b905092915050565b600060208201905081810360008301526107c6816106eb565b9050919050565b600060208201905081810360008301526107e68161070e565b9050919050565b60006020820190506108026000830184610731565b92915050565b6000610812610823565b905061081e828261092a565b919050565b6000604051905090565b600067ffffffffffffffff8211156108485761084761098a565b5b610851826109b9565b9050602081019050919050565b600081519050919050565b600082825260208201905092915050565b60006108858261088c565b9050919050565b600073ffffffffffffffffffffffffffffffffffffffff82169050919050565b6000819050919050565b82818337600083830152505050565b60005b838110156108e35780820151818401526020810190506108c8565b838111156108f2576000848401525b50505050565b6000600282049050600182168061091057607f821691505b602082108114156109245761092361095b565b5b50919050565b610933826109b9565b810181811067ffffffffffffffff821117156109525761095161098a565b5b80604052505050565b7f4e487b7100000000000000000000000000000000000000000000000000000000600052602260045260246000fd5b7f4e487b7100000000000000000000000000000000000000000000000000000000600052604160045260246000fd5b6000601f19601f8301169050919050565b7f4f776e61626c653a206e6577206f776e657220697320746865207a65726f206160008201527f6464726573730000000000000000000000000000000000000000000000000000602082015250565b7f4f776e61626c653a2063616c6c6572206973206e6f7420746865206f776e6572600082015250565b610a4b8161087a565b8114610a5657600080fd5b50565b610a62816108ac565b8114610a6d57600080fd5b5056fea2646970667358221220e6ab20d9d395c90fb6491d47a8a30c70826ce05567f2223cb9f1f502dacca50364736f6c63430008040033",
  "linkReferences": {},
  "deployedLinkReferences": {}
}