{
  "_format": "hh-sol-artifact-1",
  "contractName": "LegalFund",
  "sourceName": "contracts/LegalFund.sol",
  "abi": [
    {
      "inputs": [],
      "stateMutability": "nonpayable",
      "type": "constructor"
    },
    {
      "anonymous": false,
      "inputs": [
        {
          "indexed": true,
          "internalType": "address",
          "name": "previousOwner",
          "type": "address"
        },
        {
          "indexed": true,
          "internalType": "address",
          "name": "newOwner",
          "type": "address"
        }
      ],
      "name": "OwnershipTransferred",
      "type": "event"
    },
    {
      "inputs": [
        {
          "internalType": "address",
          "name": "to_",
          "type": "address"
        }
      ],
      "name": "depositToLegalMember",
      "outputs": [],
      "stateMutability": "payable",
      "type": "function"
    },
    {
      "inputs": [],
      "name": "owner",
      "outputs": [
        {
          "internalType": "address",
          "name": "",
          "type": "address"
        }
      ],
      "stateMutability": "view",
      "type": "function"
    },
    {
      "inputs": [],
      "name": "renounceOwnership",
      "outputs": [],
      "stateMutability": "nonpayable",
      "type": "function"
    },
    {
      "inputs": [
        {
          "internalType": "address",
          "name": "newOwner",
          "type": "address"
        }
      ],
      "name": "transferOwnership",
      "outputs": [],
      "stateMutability": "nonpayable",
      "type": "function"
    },
    {
      "inputs": [],
      "name": "withdrawLegalMemberBalance",
      "outputs": [],
      "stateMutability": "nonpayable",
      "type": "function"
    }
  ],
  "bytecode": "0x608060405234801561001057600080fd5b5061002d61002261003260201b60201c565b61003a60201b60201c565b6100fe565b600033905090565b60008060009054906101000a900473ffffffffffffffffffffffffffffffffffffffff169050816000806101000a81548173ffffffffffffffffffffffffffffffffffffffff021916908373ffffffffffffffffffffffffffffffffffffffff1602179055508173ffffffffffffffffffffffffffffffffffffffff168173ffffffffffffffffffffffffffffffffffffffff167f8be0079c531659141344cd1fd0a4f28419497f9722a3daafe3b4186f6b6457e060405160405180910390a35050565b6108558061010d6000396000f3fe60806040526004361061004a5760003560e01c80635397dffa1461004f578063715018a61461006b5780638da5cb5b14610082578063d67efbce146100ad578063f2fde38b146100c4575b600080fd5b61006960048036038101906100649190610579565b6100ed565b005b34801561007757600080fd5b5061008061017e565b005b34801561008e57600080fd5b50610097610206565b6040516100a4919061061a565b60405180910390f35b3480156100b957600080fd5b506100c261022f565b005b3480156100d057600080fd5b506100eb60048036038101906100e69190610579565b6103a0565b005b34600160008373ffffffffffffffffffffffffffffffffffffffff1673ffffffffffffffffffffffffffffffffffffffff1681526020019081526020016000205461013891906106a6565b600160008373ffffffffffffffffffffffffffffffffffffffff1673ffffffffffffffffffffffffffffffffffffffff1681526020019081526020016000208190555050565b610186610498565b73ffffffffffffffffffffffffffffffffffffffff166101a4610206565b73ffffffffffffffffffffffffffffffffffffffff16146101fa576040517f08c379a00000000000000000000000000000000000000000000000000000000081526004016101f190610655565b60405180910390fd5b61020460006104a0565b565b60008060009054906101000a900473ffffffffffffffffffffffffffffffffffffffff16905090565b60006001600061023d610498565b73ffffffffffffffffffffffffffffffffffffffff1673ffffffffffffffffffffffffffffffffffffffff16815260200190815260200160002054116102b8576040517f08c379a00000000000000000000000000000000000000000000000000000000081526004016102af90610675565b60405180910390fd5b6000600160006102c6610498565b73ffffffffffffffffffffffffffffffffffffffff1673ffffffffffffffffffffffffffffffffffffffff168152602001908152602001600020549050600060016000610311610498565b73ffffffffffffffffffffffffffffffffffffffff1673ffffffffffffffffffffffffffffffffffffffff16815260200190815260200160002081905550610357610498565b73ffffffffffffffffffffffffffffffffffffffff166108fc829081150290604051600060405180830381858888f1935050505015801561039c573d6000803e3d6000fd5b5050565b6103a8610498565b73ffffffffffffffffffffffffffffffffffffffff166103c6610206565b73ffffffffffffffffffffffffffffffffffffffff161461041c576040517f08c379a000000000000000000000000000000000000000000000000000000000815260040161041390610655565b60405180910390fd5b600073ffffffffffffffffffffffffffffffffffffffff168173ffffffffffffffffffffffffffffffffffffffff16141561048c576040517f08c379a000000000000000000000000000000000000000000000000000000000815260040161048390610635565b60405180910390fd5b610495816104a0565b50565b600033905090565b60008060009054906101000a900473ffffffffffffffffffffffffffffffffffffffff169050816000806101000a81548173ffffffffffffffffffffffffffffffffffffffff021916908373ffffffffffffffffffffffffffffffffffffffff1602179055508173ffffffffffffffffffffffffffffffffffffffff168173ffffffffffffffffffffffffffffffffffffffff167f8be0079c531659141344cd1fd0a4f28419497f9722a3daafe3b4186f6b6457e060405160405180910390a35050565b60008135905061057381610808565b92915050565b60006020828403121561058b57600080fd5b600061059984828501610564565b91505092915050565b6105ab816106fc565b82525050565b60006105be602683610695565b91506105c982610767565b604082019050919050565b60006105e1602083610695565b91506105ec826107b6565b602082019050919050565b6000610604601983610695565b915061060f826107df565b602082019050919050565b600060208201905061062f60008301846105a2565b92915050565b6000602082019050818103600083015261064e816105b1565b9050919050565b6000602082019050818103600083015261066e816105d4565b9050919050565b6000602082019050818103600083015261068e816105f7565b9050919050565b600082825260208201905092915050565b60006106b18261072e565b91506106bc8361072e565b9250827fffffffffffffffffffffffffffffffffffffffffffffffffffffffffffffffff038211156106f1576106f0610738565b5b828201905092915050565b60006107078261070e565b9050919050565b600073ffffffffffffffffffffffffffffffffffffffff82169050919050565b6000819050919050565b7f4e487b7100000000000000000000000000000000000000000000000000000000600052601160045260246000fd5b7f4f776e61626c653a206e6577206f776e657220697320746865207a65726f206160008201527f6464726573730000000000000000000000000000000000000000000000000000602082015250565b7f4f776e61626c653a2063616c6c6572206973206e6f7420746865206f776e6572600082015250565b7f6e6f2062616c616e636520666f7220746865206d656d62657200000000000000600082015250565b610811816106fc565b811461081c57600080fd5b5056fea2646970667358221220ac4248e0919c162c7b20ed6dfeb96a009a07144439f9b46954fb9c509701b63564736f6c63430008040033",
  "linkReferences": {},
  "deployedLinkReferences": {}
}