{
  "_format": "hh-sol-artifact-1",
  "contractName": "LegalFund",
  "sourceName": "contracts/LegalFund.sol",
  "abi": [
    {
      "inputs": [],
      "stateMutability": "nonpayable",
      "type": "constructor"
    },
    {
      "anonymous": false,
      "inputs": [
        {
          "indexed": true,
          "internalType": "address",
          "name": "previousOwner",
          "type": "address"
        },
        {
          "indexed": true,
          "internalType": "address",
          "name": "newOwner",
          "type": "address"
        }
      ],
      "name": "OwnershipTransferred",
      "type": "event"
    },
    {
      "inputs": [
        {
          "internalType": "address",
          "name": "to_",
          "type": "address"
        }
      ],
      "name": "depositToLegalMember",
      "outputs": [],
      "stateMutability": "payable",
      "type": "function"
    },
    {
      "inputs": [
        {
          "internalType": "address",
          "name": "",
          "type": "address"
        }
      ],
      "name": "legalBalance",
      "outputs": [
        {
          "internalType": "uint256",
          "name": "",
          "type": "uint256"
        }
      ],
      "stateMutability": "view",
      "type": "function"
    },
    {
      "inputs": [],
      "name": "owner",
      "outputs": [
        {
          "internalType": "address",
          "name": "",
          "type": "address"
        }
      ],
      "stateMutability": "view",
      "type": "function"
    },
    {
      "inputs": [],
      "name": "renounceOwnership",
      "outputs": [],
      "stateMutability": "nonpayable",
      "type": "function"
    },
    {
      "inputs": [
        {
          "internalType": "address",
          "name": "newOwner",
          "type": "address"
        }
      ],
      "name": "transferOwnership",
      "outputs": [],
      "stateMutability": "nonpayable",
      "type": "function"
    },
    {
      "inputs": [],
      "name": "withdrawLegalMemberBalance",
      "outputs": [],
      "stateMutability": "nonpayable",
      "type": "function"
    }
  ],
  "bytecode": "0x608060405234801561001057600080fd5b5061002d61002261003260201b60201c565b61003a60201b60201c565b6100fe565b600033905090565b60008060009054906101000a900473ffffffffffffffffffffffffffffffffffffffff169050816000806101000a81548173ffffffffffffffffffffffffffffffffffffffff021916908373ffffffffffffffffffffffffffffffffffffffff1602179055508173ffffffffffffffffffffffffffffffffffffffff168173ffffffffffffffffffffffffffffffffffffffff167f8be0079c531659141344cd1fd0a4f28419497f9722a3daafe3b4186f6b6457e060405160405180910390a35050565b610a278061010d6000396000f3fe6080604052600436106100555760003560e01c80635397dffa1461005a578063715018a6146100765780638da5cb5b1461008d578063d67efbce146100b8578063e76bd3e9146100cf578063f2fde38b1461010c575b600080fd5b610074600480360381019061006f91906106b5565b610135565b005b34801561008257600080fd5b5061008b6102a2565b005b34801561009957600080fd5b506100a261032a565b6040516100af9190610788565b60405180910390f35b3480156100c457600080fd5b506100cd610353565b005b3480156100db57600080fd5b506100f660048036038101906100f191906106b5565b6104c4565b6040516101039190610823565b60405180910390f35b34801561011857600080fd5b50610133600480360381019061012e91906106b5565b6104dc565b005b67016345785d8a0000341161017f576040517f08c379a0000000000000000000000000000000000000000000000000000000008152600401610176906107c3565b60405180910390fd5b6000600160008373ffffffffffffffffffffffffffffffffffffffff1673ffffffffffffffffffffffffffffffffffffffff1681526020019081526020016000205414156102105734600160008373ffffffffffffffffffffffffffffffffffffffff1673ffffffffffffffffffffffffffffffffffffffff1681526020019081526020016000208190555061029f565b34600160008373ffffffffffffffffffffffffffffffffffffffff1673ffffffffffffffffffffffffffffffffffffffff1681526020019081526020016000205461025b919061084f565b600160008373ffffffffffffffffffffffffffffffffffffffff1673ffffffffffffffffffffffffffffffffffffffff168152602001908152602001600020819055505b50565b6102aa6105d4565b73ffffffffffffffffffffffffffffffffffffffff166102c861032a565b73ffffffffffffffffffffffffffffffffffffffff161461031e576040517f08c379a0000000000000000000000000000000000000000000000000000000008152600401610315906107e3565b60405180910390fd5b61032860006105dc565b565b60008060009054906101000a900473ffffffffffffffffffffffffffffffffffffffff16905090565b6000600160006103616105d4565b73ffffffffffffffffffffffffffffffffffffffff1673ffffffffffffffffffffffffffffffffffffffff16815260200190815260200160002054116103dc576040517f08c379a00000000000000000000000000000000000000000000000000000000081526004016103d390610803565b60405180910390fd5b6000600160006103ea6105d4565b73ffffffffffffffffffffffffffffffffffffffff1673ffffffffffffffffffffffffffffffffffffffff1681526020019081526020016000205490506000600160006104356105d4565b73ffffffffffffffffffffffffffffffffffffffff1673ffffffffffffffffffffffffffffffffffffffff1681526020019081526020016000208190555061047b6105d4565b73ffffffffffffffffffffffffffffffffffffffff166108fc829081150290604051600060405180830381858888f193505050501580156104c0573d6000803e3d6000fd5b5050565b60016020528060005260406000206000915090505481565b6104e46105d4565b73ffffffffffffffffffffffffffffffffffffffff1661050261032a565b73ffffffffffffffffffffffffffffffffffffffff1614610558576040517f08c379a000000000000000000000000000000000000000000000000000000000815260040161054f906107e3565b60405180910390fd5b600073ffffffffffffffffffffffffffffffffffffffff168173ffffffffffffffffffffffffffffffffffffffff1614156105c8576040517f08c379a00000000000000000000000000000000000000000000000000000000081526004016105bf906107a3565b60405180910390fd5b6105d1816105dc565b50565b600033905090565b60008060009054906101000a900473ffffffffffffffffffffffffffffffffffffffff169050816000806101000a81548173ffffffffffffffffffffffffffffffffffffffff021916908373ffffffffffffffffffffffffffffffffffffffff1602179055508173ffffffffffffffffffffffffffffffffffffffff168173ffffffffffffffffffffffffffffffffffffffff167f8be0079c531659141344cd1fd0a4f28419497f9722a3daafe3b4186f6b6457e060405160405180910390a35050565b6000813590506106af816109da565b92915050565b6000602082840312156106c757600080fd5b60006106d5848285016106a0565b91505092915050565b6106e7816108a5565b82525050565b60006106fa60268361083e565b915061070582610910565b604082019050919050565b600061071d60138361083e565b91506107288261095f565b602082019050919050565b600061074060208361083e565b915061074b82610988565b602082019050919050565b600061076360198361083e565b915061076e826109b1565b602082019050919050565b610782816108d7565b82525050565b600060208201905061079d60008301846106de565b92915050565b600060208201905081810360008301526107bc816106ed565b9050919050565b600060208201905081810360008301526107dc81610710565b9050919050565b600060208201905081810360008301526107fc81610733565b9050919050565b6000602082019050818103600083015261081c81610756565b9050919050565b60006020820190506108386000830184610779565b92915050565b600082825260208201905092915050565b600061085a826108d7565b9150610865836108d7565b9250827fffffffffffffffffffffffffffffffffffffffffffffffffffffffffffffffff0382111561089a576108996108e1565b5b828201905092915050565b60006108b0826108b7565b9050919050565b600073ffffffffffffffffffffffffffffffffffffffff82169050919050565b6000819050919050565b7f4e487b7100000000000000000000000000000000000000000000000000000000600052601160045260246000fd5b7f4f776e61626c653a206e6577206f776e657220697320746865207a65726f206160008201527f6464726573730000000000000000000000000000000000000000000000000000602082015250565b7f4572726f723220696e76616c69642066756e6400000000000000000000000000600082015250565b7f4f776e61626c653a2063616c6c6572206973206e6f7420746865206f776e6572600082015250565b7f6e6f2062616c616e636520666f7220746865206d656d62657200000000000000600082015250565b6109e3816108a5565b81146109ee57600080fd5b5056fea26469706673582212206feba704c84ee103028711701107cf7999563a146c91586104744ce49ab4a47964736f6c63430008040033",
  "linkReferences": {},
  "deployedLinkReferences": {}
}